{
  "contractName": "PackagesAll",
  "abi": [
    {
      "inputs": [],
      "stateMutability": "nonpayable",
      "type": "constructor"
    },
    {
      "inputs": [
        {
          "internalType": "bytes32",
          "name": "userId",
          "type": "bytes32"
        }
      ],
      "name": "getMyPackages",
      "outputs": [
        {
          "internalType": "bytes32[]",
          "name": "",
          "type": "bytes32[]"
        },
        {
          "internalType": "bytes32[]",
          "name": "",
          "type": "bytes32[]"
        },
        {
          "internalType": "bytes32[]",
          "name": "",
          "type": "bytes32[]"
        },
        {
          "internalType": "bytes32[]",
          "name": "",
          "type": "bytes32[]"
        },
        {
          "internalType": "address[]",
          "name": "",
          "type": "address[]"
        },
        {
          "internalType": "bool[]",
          "name": "",
          "type": "bool[]"
        },
        {
          "internalType": "bytes32[]",
          "name": "",
          "type": "bytes32[]"
        }
      ],
      "stateMutability": "view",
      "type": "function",
      "constant": true
    },
    {
      "inputs": [
        {
          "internalType": "bytes32",
          "name": "packageId",
          "type": "bytes32"
        },
        {
          "internalType": "bytes32",
          "name": "senderId",
          "type": "bytes32"
        },
        {
          "internalType": "bytes32",
          "name": "receiverAddress",
          "type": "bytes32"
        },
        {
          "internalType": "bytes32",
          "name": "description",
          "type": "bytes32"
        },
        {
          "internalType": "bytes32",
          "name": "shipmentDate",
          "type": "bytes32"
        }
      ],
      "name": "addPackageFree",
      "outputs": [],
      "stateMutability": "nonpayable",
      "type": "function"
    },
    {
      "inputs": [
        {
          "internalType": "bytes32",
          "name": "userId",
          "type": "bytes32"
        },
        {
          "internalType": "bytes32",
          "name": "packageId",
          "type": "bytes32"
        },
        {
          "internalType": "bool",
          "name": "value",
          "type": "bool"
        }
      ],
      "name": "setReceived",
      "outputs": [],
      "stateMutability": "nonpayable",
      "type": "function"
    },
    {
      "inputs": [
        {
          "internalType": "bytes32",
          "name": "userId",
          "type": "bytes32"
        },
        {
          "internalType": "bytes32",
          "name": "packageId",
          "type": "bytes32"
        }
      ],
      "name": "getOne",
      "outputs": [
        {
          "internalType": "bytes32",
          "name": "",
          "type": "bytes32"
        },
        {
          "internalType": "bytes32",
          "name": "",
          "type": "bytes32"
        },
        {
          "internalType": "bytes32",
          "name": "",
          "type": "bytes32"
        },
        {
          "internalType": "bytes32",
          "name": "",
          "type": "bytes32"
        },
        {
          "internalType": "address",
          "name": "",
          "type": "address"
        },
        {
          "internalType": "bool",
          "name": "",
          "type": "bool"
        },
        {
          "internalType": "bytes32",
          "name": "",
          "type": "bytes32"
        }
      ],
      "stateMutability": "view",
      "type": "function",
      "constant": true
    }
  ],
  "bytecode": "0x608060405234801561001057600080fd5b50611011806100206000396000f3fe608060405234801561001057600080fd5b506004361061004c5760003560e01c80637363f5e814610051578063a960838614610087578063eea61de4146100a3578063f28d97f9146100d9575b600080fd5b61006b6004803603810190610066919061099b565b6100f5565b60405161007e9796959493929190610a46565b60405180910390f35b6100a1600480360381019061009c9190610ab5565b61022b565b005b6100bd60048036038101906100b89190610b30565b6103cf565b6040516100d09796959493929190610d97565b60405180910390f35b6100f360048036038101906100ee9190610e63565b61091a565b005b6000806000806000806000806000808b815260200190815260200160002060000160008a81526020019081526020016000206040518060e0016040529081600082015481526020016001820154815260200160028201548152602001600382015481526020016004820160009054906101000a900473ffffffffffffffffffffffffffffffffffffffff1673ffffffffffffffffffffffffffffffffffffffff1673ffffffffffffffffffffffffffffffffffffffff1681526020016004820160149054906101000a900460ff16151515158152602001600582015481525050905060008160400151905060008260600151905060008360800151905060008460a00151905060008560c0015190508d8f86868686869c509c509c509c509c509c509c5050505050505092959891949750929550565b60006040518060e001604052808781526020018681526020018581526020018481526020013373ffffffffffffffffffffffffffffffffffffffff1681526020016000151581526020018381525090508060008087815260200190815260200160002060000160008881526020019081526020016000206000820151816000015560208201518160010155604082015181600201556060820151816003015560808201518160040160006101000a81548173ffffffffffffffffffffffffffffffffffffffff021916908373ffffffffffffffffffffffffffffffffffffffff16021790555060a08201518160040160146101000a81548160ff02191690831515021790555060c08201518160050155905050600080868152602001908152602001600020600101869080600181540180825580915050600190039060005260206000200160009091909190915055600160008087815260200190815260200160002060020160008282829054906101000a900461ffff166103ad9190610ef3565b92506101000a81548161ffff021916908361ffff160217905550505050505050565b606080606080606080606060008060008a8152602001908152602001600020905060008160020160009054906101000a900461ffff1661ffff1667ffffffffffffffff81111561042257610421610f2b565b5b6040519080825280602002602001820160405280156104505781602001602082028036833780820191505090505b50905060008260020160009054906101000a900461ffff1661ffff1667ffffffffffffffff81111561048557610484610f2b565b5b6040519080825280602002602001820160405280156104b35781602001602082028036833780820191505090505b50905060008360020160009054906101000a900461ffff1661ffff1667ffffffffffffffff8111156104e8576104e7610f2b565b5b6040519080825280602002602001820160405280156105165781602001602082028036833780820191505090505b50905060008460020160009054906101000a900461ffff1661ffff1667ffffffffffffffff81111561054b5761054a610f2b565b5b6040519080825280602002602001820160405280156105795781602001602082028036833780820191505090505b50905060008560020160009054906101000a900461ffff1661ffff1667ffffffffffffffff8111156105ae576105ad610f2b565b5b6040519080825280602002602001820160405280156105dc5781602001602082028036833780820191505090505b50905060008660020160009054906101000a900461ffff1661ffff1667ffffffffffffffff81111561061157610610610f2b565b5b60405190808252806020026020018201604052801561063f5781602001602082028036833780820191505090505b50905060008760020160009054906101000a900461ffff1661ffff1667ffffffffffffffff81111561067457610673610f2b565b5b6040519080825280602002602001820160405280156106a25781602001602082028036833780820191505090505b50905060005b8860020160009054906101000a900461ffff1661ffff168110156108f15760008960000160008b60010184815481106106e4576106e3610f5a565b5b906000526020600020015481526020019081526020016000206040518060e0016040529081600082015481526020016001820154815260200160028201548152602001600382015481526020016004820160009054906101000a900473ffffffffffffffffffffffffffffffffffffffff1673ffffffffffffffffffffffffffffffffffffffff1673ffffffffffffffffffffffffffffffffffffffff1681526020016004820160149054906101000a900460ff16151515158152602001600582015481525050905080600001518983815181106107c5576107c4610f5a565b5b60200260200101818152505080602001518883815181106107e9576107e8610f5a565b5b602002602001018181525050806040015187838151811061080d5761080c610f5a565b5b602002602001018181525050806060015186838151811061083157610830610f5a565b5b602002602001018181525050806080015185838151811061085557610854610f5a565b5b602002602001019073ffffffffffffffffffffffffffffffffffffffff16908173ffffffffffffffffffffffffffffffffffffffff16815250508060a001518483815181106108a7576108a6610f5a565b5b6020026020010190151590811515815250508060c001518383815181106108d1576108d0610f5a565b5b6020026020010181815250505080806108e990610f93565b9150506106a8565b50868686868686869e509e509e509e509e509e509e505050505050505050919395979092949650565b80600080858152602001908152602001600020600001600084815260200190815260200160002060040160146101000a81548160ff021916908315150217905550505050565b600080fd5b6000819050919050565b61097881610965565b811461098357600080fd5b50565b6000813590506109958161096f565b92915050565b600080604083850312156109b2576109b1610960565b5b60006109c085828601610986565b92505060206109d185828601610986565b9150509250929050565b6109e481610965565b82525050565b600073ffffffffffffffffffffffffffffffffffffffff82169050919050565b6000610a15826109ea565b9050919050565b610a2581610a0a565b82525050565b60008115159050919050565b610a4081610a2b565b82525050565b600060e082019050610a5b600083018a6109db565b610a6860208301896109db565b610a7560408301886109db565b610a8260608301876109db565b610a8f6080830186610a1c565b610a9c60a0830185610a37565b610aa960c08301846109db565b98975050505050505050565b600080600080600060a08688031215610ad157610ad0610960565b5b6000610adf88828901610986565b9550506020610af088828901610986565b9450506040610b0188828901610986565b9350506060610b1288828901610986565b9250506080610b2388828901610986565b9150509295509295909350565b600060208284031215610b4657610b45610960565b5b6000610b5484828501610986565b91505092915050565b600081519050919050565b600082825260208201905092915050565b6000819050602082019050919050565b610b9281610965565b82525050565b6000610ba48383610b89565b60208301905092915050565b6000602082019050919050565b6000610bc882610b5d565b610bd28185610b68565b9350610bdd83610b79565b8060005b83811015610c0e578151610bf58882610b98565b9750610c0083610bb0565b925050600181019050610be1565b5085935050505092915050565b600081519050919050565b600082825260208201905092915050565b6000819050602082019050919050565b610c5081610a0a565b82525050565b6000610c628383610c47565b60208301905092915050565b6000602082019050919050565b6000610c8682610c1b565b610c908185610c26565b9350610c9b83610c37565b8060005b83811015610ccc578151610cb38882610c56565b9750610cbe83610c6e565b925050600181019050610c9f565b5085935050505092915050565b600081519050919050565b600082825260208201905092915050565b6000819050602082019050919050565b610d0e81610a2b565b82525050565b6000610d208383610d05565b60208301905092915050565b6000602082019050919050565b6000610d4482610cd9565b610d4e8185610ce4565b9350610d5983610cf5565b8060005b83811015610d8a578151610d718882610d14565b9750610d7c83610d2c565b925050600181019050610d5d565b5085935050505092915050565b600060e0820190508181036000830152610db1818a610bbd565b90508181036020830152610dc58189610bbd565b90508181036040830152610dd98188610bbd565b90508181036060830152610ded8187610bbd565b90508181036080830152610e018186610c7b565b905081810360a0830152610e158185610d39565b905081810360c0830152610e298184610bbd565b905098975050505050505050565b610e4081610a2b565b8114610e4b57600080fd5b50565b600081359050610e5d81610e37565b92915050565b600080600060608486031215610e7c57610e7b610960565b5b6000610e8a86828701610986565b9350506020610e9b86828701610986565b9250506040610eac86828701610e4e565b9150509250925092565b600061ffff82169050919050565b7f4e487b7100000000000000000000000000000000000000000000000000000000600052601160045260246000fd5b6000610efe82610eb6565b9150610f0983610eb6565b92508261ffff03821115610f2057610f1f610ec4565b5b828201905092915050565b7f4e487b7100000000000000000000000000000000000000000000000000000000600052604160045260246000fd5b7f4e487b7100000000000000000000000000000000000000000000000000000000600052603260045260246000fd5b6000819050919050565b6000610f9e82610f89565b91507fffffffffffffffffffffffffffffffffffffffffffffffffffffffffffffffff8203610fd057610fcf610ec4565b5b60018201905091905056fea26469706673582212208a300d14134ac9f030b3f52ca68d76aaad2e632806a2206311dc29d4b108348564736f6c634300080f0033",
  "immutableReferences": {},
  "source": "// SPDX-License-Identifier: MIT\npragma solidity >=0.8.0 <0.9.0;\n\ncontract PackagesAll {\n  \n\n  struct Package{\n    bytes32 packageId;\n    bytes32 senderId;\n    bytes32 receiverAddress;\n    bytes32 description;\n    address owner;\n    bool isReceived;\n    bytes32 shipmentDate;\n  }\n\n  struct UserPackages  {\n    mapping (bytes32=> Package) packages;\n    bytes32[] index;\n    uint16 count;\n\n  }\n  mapping (bytes32=>UserPackages) userPackages;\n\n  constructor(){\n\n  }\n\n function getMyPackages(bytes32 userId) public view returns(\n bytes32[] memory,\n bytes32[] memory,\n bytes32[] memory,\n bytes32[] memory,\n address[] memory,\n bool[] memory,\n bytes32[] memory\n ) {\n\n//paketi za jednog korisnika\nUserPackages storage userPackagesTemp = userPackages[userId];\n\nbytes32[] memory arrayPackageId = new bytes32[](userPackagesTemp.count);\nbytes32[] memory arraySenderId = new bytes32[](userPackagesTemp.count);\nbytes32[] memory arrayReceiverAddress = new bytes32[](userPackagesTemp.count);\nbytes32[] memory arrayDescription = new bytes32[](userPackagesTemp.count);\naddress[] memory arrayOwner = new address[](userPackagesTemp.count);\nbool[] memory arrayIsReceived = new bool[](userPackagesTemp.count);\nbytes32[] memory arrayDate = new bytes32[](userPackagesTemp.count);\n\n\n\nfor (uint i = 0; i < userPackagesTemp.count; i++) {\n    Package memory member = userPackagesTemp.packages[userPackagesTemp.index[i]];\n    arrayPackageId[i] = member.packageId;\n    arraySenderId[i] = member.senderId;\n    arrayReceiverAddress[i] = member.receiverAddress;\n    arrayDescription[i] = member.description;\n    arrayOwner[i] = member.owner;\n    arrayIsReceived[i] = member.isReceived;\n    arrayDate[i] = member.shipmentDate;\n\n}\n\nreturn (\n  arrayPackageId,\n  arraySenderId,\n  arrayReceiverAddress, \n  arrayDescription, \n  arrayOwner, \n  arrayIsReceived,\n  arrayDate);\n\n\n}\n\n\n\nfunction addPackageFree( \n  bytes32 packageId,\n  bytes32 senderId, \n  bytes32 receiverAddress, \n  bytes32 description,\n  bytes32 shipmentDate) public {\n\nPackage memory package =  Package({\n  packageId:packageId, \n  senderId: senderId,  \n  receiverAddress: receiverAddress, \n  description:description, \n  owner:msg.sender,  \n  isReceived: false,\n  shipmentDate: shipmentDate\n});\n\nuserPackages[senderId].packages[packageId] = package;\nuserPackages[senderId].index.push(packageId);\nuserPackages[senderId].count+=1;\n\n}\n\nfunction setReceived(bytes32 userId,bytes32 packageId, bool value) public{\n\n userPackages[userId].packages[packageId].isReceived = value;\n  \n\n}\n\n\nfunction getOne(bytes32 userId, bytes32 packageId) public view returns(\n  bytes32, \n  bytes32,\n  bytes32,\n  bytes32,\n  address,\n  bool,\n  bytes32\n  ) {\n\n    Package memory package = userPackages[userId].packages[packageId];  \n\n\n    bytes32 receiverAddress = package.receiverAddress;\n    bytes32 description = package.description;\n    address owner = package.owner;\n    bool isReceived = package.isReceived;\n    bytes32 shipmentDate = package.shipmentDate;\n\nreturn (\n  packageId,\n  userId,\n  receiverAddress, \n  description, \n  owner, \n  isReceived,\n  shipmentDate);\n}\n\n\n\n\n}",
  "sourcePath": "/Users/andrejbatarilo/Desktop/ethereum-shipping/ethereum-shipping-system-truffle/app/contracts/PackagesAll.sol",
  "compiler": {
    "name": "solc",
    "version": "0.8.15+commit.e14f2714.Emscripten.clang"
  },
  "schemaVersion": "3.4.8",
  "updatedAt": "2022-08-14T20:44:32.482Z",
  "networkType": "ethereum",
  "devdoc": {
    "kind": "dev",
    "methods": {},
    "version": 1
  },
  "userdoc": {
    "kind": "user",
    "methods": {},
    "version": 1
  }
}