{
  "contractName": "PackagesAll",
  "abi": [
    {
      "inputs": [],
      "stateMutability": "nonpayable",
      "type": "constructor"
    },
    {
      "inputs": [
        {
          "internalType": "bytes32",
          "name": "userId",
          "type": "bytes32"
        }
      ],
      "name": "getMyPackages",
      "outputs": [
        {
          "internalType": "bytes32[]",
          "name": "",
          "type": "bytes32[]"
        },
        {
          "internalType": "bytes32[]",
          "name": "",
          "type": "bytes32[]"
        },
        {
          "internalType": "bytes32[]",
          "name": "",
          "type": "bytes32[]"
        },
        {
          "internalType": "bytes32[]",
          "name": "",
          "type": "bytes32[]"
        },
        {
          "internalType": "address[]",
          "name": "",
          "type": "address[]"
        },
        {
          "internalType": "bool[]",
          "name": "",
          "type": "bool[]"
        }
      ],
      "stateMutability": "view",
      "type": "function",
      "constant": true
    },
    {
      "inputs": [
        {
          "internalType": "bytes32",
          "name": "packageId",
          "type": "bytes32"
        },
        {
          "internalType": "bytes32",
          "name": "senderId",
          "type": "bytes32"
        },
        {
          "internalType": "bytes32",
          "name": "receiverAddress",
          "type": "bytes32"
        },
        {
          "internalType": "bytes32",
          "name": "description",
          "type": "bytes32"
        }
      ],
      "name": "addPackageFree",
      "outputs": [],
      "stateMutability": "nonpayable",
      "type": "function"
    },
    {
      "inputs": [
        {
          "internalType": "bytes32",
          "name": "userId",
          "type": "bytes32"
        },
        {
          "internalType": "bytes32",
          "name": "packageId",
          "type": "bytes32"
        },
        {
          "internalType": "bool",
          "name": "value",
          "type": "bool"
        }
      ],
      "name": "setReceived",
      "outputs": [],
      "stateMutability": "nonpayable",
      "type": "function"
    },
    {
      "inputs": [
        {
          "internalType": "bytes32",
          "name": "userId",
          "type": "bytes32"
        },
        {
          "internalType": "bytes32",
          "name": "packageId",
          "type": "bytes32"
        }
      ],
      "name": "getOne",
      "outputs": [
        {
          "internalType": "bytes32",
          "name": "",
          "type": "bytes32"
        },
        {
          "internalType": "bytes32",
          "name": "",
          "type": "bytes32"
        },
        {
          "internalType": "bytes32",
          "name": "",
          "type": "bytes32"
        },
        {
          "internalType": "bytes32",
          "name": "",
          "type": "bytes32"
        },
        {
          "internalType": "address",
          "name": "",
          "type": "address"
        },
        {
          "internalType": "bool",
          "name": "",
          "type": "bool"
        }
      ],
      "stateMutability": "view",
      "type": "function",
      "constant": true
    }
  ],
  "bytecode": "0x608060405234801561001057600080fd5b50610f14806100206000396000f3fe608060405234801561001057600080fd5b506004361061004c5760003560e01c80634d70e36a146100515780637363f5e81461006d578063eea61de4146100a2578063f28d97f9146100d7575b600080fd5b61006b600480360381019061006691906108d5565b6100f3565b005b6100876004803603810190610082919061093c565b610286565b604051610099969594939291906109e7565b60405180910390f35b6100bc60048036038101906100b79190610a48565b6103a2565b6040516100ce96959493929190610caf565b60405180910390f35b6100f160048036038101906100ec9190610d66565b610854565b005b60006040518060c001604052808681526020018581526020018481526020018381526020013373ffffffffffffffffffffffffffffffffffffffff1681526020016000151581525090508060008086815260200190815260200160002060000160008781526020019081526020016000206000820151816000015560208201518160010155604082015181600201556060820151816003015560808201518160040160006101000a81548173ffffffffffffffffffffffffffffffffffffffff021916908373ffffffffffffffffffffffffffffffffffffffff16021790555060a08201518160040160146101000a81548160ff021916908315150217905550905050600080858152602001908152602001600020600101859080600181540180825580915050600190039060005260206000200160009091909190915055600160008086815260200190815260200160002060020160008282829054906101000a900461ffff166102659190610df6565b92506101000a81548161ffff021916908361ffff1602179055505050505050565b60008060008060008060008060008a815260200190815260200160002060000160008981526020019081526020016000206040518060c0016040529081600082015481526020016001820154815260200160028201548152602001600382015481526020016004820160009054906101000a900473ffffffffffffffffffffffffffffffffffffffff1673ffffffffffffffffffffffffffffffffffffffff1673ffffffffffffffffffffffffffffffffffffffff1681526020016004820160149054906101000a900460ff161515151581525050905060008160400151905060008260600151905060008360800151905060008460a0015190508b8d858585859a509a509a509a509a509a5050505050509295509295509295565b6060806060806060806000806000898152602001908152602001600020905060008160020160009054906101000a900461ffff1661ffff1667ffffffffffffffff8111156103f3576103f2610e2e565b5b6040519080825280602002602001820160405280156104215781602001602082028036833780820191505090505b50905060008260020160009054906101000a900461ffff1661ffff1667ffffffffffffffff81111561045657610455610e2e565b5b6040519080825280602002602001820160405280156104845781602001602082028036833780820191505090505b50905060008360020160009054906101000a900461ffff1661ffff1667ffffffffffffffff8111156104b9576104b8610e2e565b5b6040519080825280602002602001820160405280156104e75781602001602082028036833780820191505090505b50905060008460020160009054906101000a900461ffff1661ffff1667ffffffffffffffff81111561051c5761051b610e2e565b5b60405190808252806020026020018201604052801561054a5781602001602082028036833780820191505090505b50905060008560020160009054906101000a900461ffff1661ffff1667ffffffffffffffff81111561057f5761057e610e2e565b5b6040519080825280602002602001820160405280156105ad5781602001602082028036833780820191505090505b50905060008660020160009054906101000a900461ffff1661ffff1667ffffffffffffffff8111156105e2576105e1610e2e565b5b6040519080825280602002602001820160405280156106105781602001602082028036833780820191505090505b50905060005b8760020160009054906101000a900461ffff1661ffff168110156108315760008860000160008a600101848154811061065257610651610e5d565b5b906000526020600020015481526020019081526020016000206040518060c0016040529081600082015481526020016001820154815260200160028201548152602001600382015481526020016004820160009054906101000a900473ffffffffffffffffffffffffffffffffffffffff1673ffffffffffffffffffffffffffffffffffffffff1673ffffffffffffffffffffffffffffffffffffffff1681526020016004820160149054906101000a900460ff1615151515815250509050806000015188838151811061072957610728610e5d565b5b602002602001018181525050806020015187838151811061074d5761074c610e5d565b5b602002602001018181525050806040015186838151811061077157610770610e5d565b5b602002602001018181525050806060015185838151811061079557610794610e5d565b5b60200260200101818152505080608001518483815181106107b9576107b8610e5d565b5b602002602001019073ffffffffffffffffffffffffffffffffffffffff16908173ffffffffffffffffffffffffffffffffffffffff16815250508060a0015183838151811061080b5761080a610e5d565b5b60200260200101901515908115158152505050808061082990610e96565b915050610616565b508585858585859c509c509c509c509c509c505050505050505091939550919395565b80600080858152602001908152602001600020600001600084815260200190815260200160002060040160146101000a81548160ff021916908315150217905550505050565b600080fd5b6000819050919050565b6108b28161089f565b81146108bd57600080fd5b50565b6000813590506108cf816108a9565b92915050565b600080600080608085870312156108ef576108ee61089a565b5b60006108fd878288016108c0565b945050602061090e878288016108c0565b935050604061091f878288016108c0565b9250506060610930878288016108c0565b91505092959194509250565b600080604083850312156109535761095261089a565b5b6000610961858286016108c0565b9250506020610972858286016108c0565b9150509250929050565b6109858161089f565b82525050565b600073ffffffffffffffffffffffffffffffffffffffff82169050919050565b60006109b68261098b565b9050919050565b6109c6816109ab565b82525050565b60008115159050919050565b6109e1816109cc565b82525050565b600060c0820190506109fc600083018961097c565b610a09602083018861097c565b610a16604083018761097c565b610a23606083018661097c565b610a3060808301856109bd565b610a3d60a08301846109d8565b979650505050505050565b600060208284031215610a5e57610a5d61089a565b5b6000610a6c848285016108c0565b91505092915050565b600081519050919050565b600082825260208201905092915050565b6000819050602082019050919050565b610aaa8161089f565b82525050565b6000610abc8383610aa1565b60208301905092915050565b6000602082019050919050565b6000610ae082610a75565b610aea8185610a80565b9350610af583610a91565b8060005b83811015610b26578151610b0d8882610ab0565b9750610b1883610ac8565b925050600181019050610af9565b5085935050505092915050565b600081519050919050565b600082825260208201905092915050565b6000819050602082019050919050565b610b68816109ab565b82525050565b6000610b7a8383610b5f565b60208301905092915050565b6000602082019050919050565b6000610b9e82610b33565b610ba88185610b3e565b9350610bb383610b4f565b8060005b83811015610be4578151610bcb8882610b6e565b9750610bd683610b86565b925050600181019050610bb7565b5085935050505092915050565b600081519050919050565b600082825260208201905092915050565b6000819050602082019050919050565b610c26816109cc565b82525050565b6000610c388383610c1d565b60208301905092915050565b6000602082019050919050565b6000610c5c82610bf1565b610c668185610bfc565b9350610c7183610c0d565b8060005b83811015610ca2578151610c898882610c2c565b9750610c9483610c44565b925050600181019050610c75565b5085935050505092915050565b600060c0820190508181036000830152610cc98189610ad5565b90508181036020830152610cdd8188610ad5565b90508181036040830152610cf18187610ad5565b90508181036060830152610d058186610ad5565b90508181036080830152610d198185610b93565b905081810360a0830152610d2d8184610c51565b9050979650505050505050565b610d43816109cc565b8114610d4e57600080fd5b50565b600081359050610d6081610d3a565b92915050565b600080600060608486031215610d7f57610d7e61089a565b5b6000610d8d868287016108c0565b9350506020610d9e868287016108c0565b9250506040610daf86828701610d51565b9150509250925092565b600061ffff82169050919050565b7f4e487b7100000000000000000000000000000000000000000000000000000000600052601160045260246000fd5b6000610e0182610db9565b9150610e0c83610db9565b92508261ffff03821115610e2357610e22610dc7565b5b828201905092915050565b7f4e487b7100000000000000000000000000000000000000000000000000000000600052604160045260246000fd5b7f4e487b7100000000000000000000000000000000000000000000000000000000600052603260045260246000fd5b6000819050919050565b6000610ea182610e8c565b91507fffffffffffffffffffffffffffffffffffffffffffffffffffffffffffffffff8203610ed357610ed2610dc7565b5b60018201905091905056fea26469706673582212207fe46923caca2c2c147ebf7577e1ddee5af0044f10dbd7049de4e38c6a2c329c64736f6c634300080f0033",
  "immutableReferences": {},
  "source": "// SPDX-License-Identifier: MIT\npragma solidity >=0.8.0 <0.9.0;\n\ncontract PackagesAll {\n  \n\n  struct Package{\n    bytes32 packageId;\n    bytes32 senderId;\n    bytes32 receiverAddress;\n    bytes32 description;\n    address owner;\n    bool isReceived;\n  }\n\n  struct UserPackages  {\n    mapping (bytes32=> Package) packages;\n    bytes32[] index;\n    uint16 count;\n\n  }\n  mapping (bytes32=>UserPackages) userPackages;\n\n  constructor(){\n\n  }\n\n function getMyPackages(bytes32 userId) public view returns(\n bytes32[] memory,\n bytes32[] memory,\n bytes32[] memory,\n bytes32[] memory,\n address[] memory,\n bool[] memory\n ) {\n\n//paketi za jednog korisnika\nUserPackages storage userPackagesTemp = userPackages[userId];\n\nbytes32[] memory arrayPackageId = new bytes32[](userPackagesTemp.count);\nbytes32[] memory arraySenderId = new bytes32[](userPackagesTemp.count);\nbytes32[] memory arrayReceiverAddress = new bytes32[](userPackagesTemp.count);\nbytes32[] memory arrayDescription = new bytes32[](userPackagesTemp.count);\naddress[] memory arrayOwner = new address[](userPackagesTemp.count);\nbool[] memory arrayIsReceived = new bool[](userPackagesTemp.count);\n\n\n\nfor (uint i = 0; i < userPackagesTemp.count; i++) {\n    Package memory member = userPackagesTemp.packages[userPackagesTemp.index[i]];\n    arrayPackageId[i] = member.packageId;\n    arraySenderId[i] = member.senderId;\n    arrayReceiverAddress[i] = member.receiverAddress;\n    arrayDescription[i] = member.description;\n    arrayOwner[i] = member.owner;\n    arrayIsReceived[i] = member.isReceived;\n\n}\n\nreturn (\n  arrayPackageId,\n  arraySenderId,\n  arrayReceiverAddress, \n  arrayDescription, \n  arrayOwner, \n  arrayIsReceived);\n\n\n}\n\n\n\nfunction addPackageFree( \n  bytes32 packageId,\n  bytes32 senderId, \n  bytes32 receiverAddress, \n  bytes32 description) public {\n\nPackage memory package =  Package({\n  packageId:packageId, \nsenderId: senderId,  receiverAddress: receiverAddress, description:description, owner:msg.sender,  isReceived: false});\n\nuserPackages[senderId].packages[packageId] = package;\nuserPackages[senderId].index.push(packageId);\nuserPackages[senderId].count+=1;\n\n}\n\nfunction setReceived(bytes32 userId,bytes32 packageId, bool value) public{\n\n userPackages[userId].packages[packageId].isReceived = value;\n  \n\n}\n\n\nfunction getOne(bytes32 userId, bytes32 packageId) public view returns(\n  bytes32, \n  bytes32,\n  bytes32,\n  bytes32,\n  address,\n  bool\n  ) {\n\n    Package memory package = userPackages[userId].packages[packageId];  \n\n\n    bytes32 receiverAddress = package.receiverAddress;\n    bytes32 description = package.description;\n    address owner = package.owner;\n    bool isReceived = package.isReceived;\n\nreturn (\n  packageId,\n  userId,\n  receiverAddress, \n  description, \n  owner, \n  isReceived);\n}\n\n\n\n\n}",
  "sourcePath": "/Users/andrejbatarilo/Desktop/ethereum-shipping/ethereum-shipping-system-truffle/app/contracts/PackagesAll.sol",
  "compiler": {
    "name": "solc",
    "version": "0.8.15+commit.e14f2714.Emscripten.clang"
  },
  "schemaVersion": "3.4.8",
  "updatedAt": "2022-08-13T13:32:03.035Z",
  "networkType": "ethereum",
  "devdoc": {
    "kind": "dev",
    "methods": {},
    "version": 1
  },
  "userdoc": {
    "kind": "user",
    "methods": {},
    "version": 1
  }
}