{
  "contractName": "PackagesAll",
  "abi": [
    {
      "inputs": [],
      "stateMutability": "nonpayable",
      "type": "constructor"
    },
    {
      "inputs": [
        {
          "internalType": "bytes32",
          "name": "userId",
          "type": "bytes32"
        }
      ],
      "name": "getMyPackages",
      "outputs": [
        {
          "internalType": "bytes32[]",
          "name": "",
          "type": "bytes32[]"
        },
        {
          "internalType": "bytes32[]",
          "name": "",
          "type": "bytes32[]"
        },
        {
          "internalType": "string[]",
          "name": "",
          "type": "string[]"
        },
        {
          "internalType": "string[]",
          "name": "",
          "type": "string[]"
        },
        {
          "internalType": "address[]",
          "name": "",
          "type": "address[]"
        },
        {
          "internalType": "bool[]",
          "name": "",
          "type": "bool[]"
        },
        {
          "internalType": "bytes32[]",
          "name": "",
          "type": "bytes32[]"
        }
      ],
      "stateMutability": "view",
      "type": "function",
      "constant": true
    },
    {
      "inputs": [
        {
          "internalType": "bytes32",
          "name": "packageId",
          "type": "bytes32"
        },
        {
          "internalType": "bytes32",
          "name": "senderId",
          "type": "bytes32"
        },
        {
          "internalType": "string",
          "name": "receiverAddress",
          "type": "string"
        },
        {
          "internalType": "string",
          "name": "description",
          "type": "string"
        },
        {
          "internalType": "bytes32",
          "name": "shipmentDate",
          "type": "bytes32"
        }
      ],
      "name": "addPackageFree",
      "outputs": [],
      "stateMutability": "nonpayable",
      "type": "function"
    },
    {
      "inputs": [
        {
          "internalType": "bytes32",
          "name": "userId",
          "type": "bytes32"
        },
        {
          "internalType": "bytes32",
          "name": "packageId",
          "type": "bytes32"
        },
        {
          "internalType": "bool",
          "name": "value",
          "type": "bool"
        }
      ],
      "name": "setReceived",
      "outputs": [],
      "stateMutability": "nonpayable",
      "type": "function"
    },
    {
      "inputs": [
        {
          "internalType": "bytes32",
          "name": "userId",
          "type": "bytes32"
        },
        {
          "internalType": "bytes32",
          "name": "packageId",
          "type": "bytes32"
        }
      ],
      "name": "getOne",
      "outputs": [
        {
          "internalType": "bytes32",
          "name": "",
          "type": "bytes32"
        },
        {
          "internalType": "bytes32",
          "name": "",
          "type": "bytes32"
        },
        {
          "internalType": "string",
          "name": "",
          "type": "string"
        },
        {
          "internalType": "string",
          "name": "",
          "type": "string"
        },
        {
          "internalType": "address",
          "name": "",
          "type": "address"
        },
        {
          "internalType": "bool",
          "name": "",
          "type": "bool"
        },
        {
          "internalType": "bytes32",
          "name": "",
          "type": "bytes32"
        }
      ],
      "stateMutability": "view",
      "type": "function",
      "constant": true
    }
  ],
  "bytecode": "0x608060405234801561001057600080fd5b506118b0806100206000396000f3fe608060405234801561001057600080fd5b506004361061004c5760003560e01c8063520d085d146100515780637363f5e81461006d578063eea61de4146100a3578063f28d97f9146100d9575b600080fd5b61006b60048036038101906100669190610db1565b6100f5565b005b61008760048036038101906100829190610e64565b6102b1565b60405161009a9796959493929190610f97565b60405180910390f35b6100bd60048036038101906100b89190611014565b6104f7565b6040516100d09796959493929190611387565b60405180910390f35b6100f360048036038101906100ee9190611453565b610b5a565b005b60006040518060e001604052808781526020018681526020018581526020018481526020013373ffffffffffffffffffffffffffffffffffffffff1681526020016000151581526020018381525090508060008087815260200190815260200160002060000160008881526020019081526020016000206000820151816000015560208201518160010155604082015181600201908161019591906116bc565b5060608201518160030190816101ab91906116bc565b5060808201518160040160006101000a81548173ffffffffffffffffffffffffffffffffffffffff021916908373ffffffffffffffffffffffffffffffffffffffff16021790555060a08201518160040160146101000a81548160ff02191690831515021790555060c08201518160050155905050600080868152602001908152602001600020600101869080600181540180825580915050600190039060005260206000200160009091909190915055600160008087815260200190815260200160002060020160008282829054906101000a900461ffff1661028f91906117cb565b92506101000a81548161ffff021916908361ffff160217905550505050505050565b6000806060806000806000806000808b815260200190815260200160002060000160008a81526020019081526020016000206040518060e00160405290816000820154815260200160018201548152602001600282018054610312906114d5565b80601f016020809104026020016040519081016040528092919081815260200182805461033e906114d5565b801561038b5780601f106103605761010080835404028352916020019161038b565b820191906000526020600020905b81548152906001019060200180831161036e57829003601f168201915b505050505081526020016003820180546103a4906114d5565b80601f01602080910402602001604051908101604052809291908181526020018280546103d0906114d5565b801561041d5780601f106103f25761010080835404028352916020019161041d565b820191906000526020600020905b81548152906001019060200180831161040057829003601f168201915b505050505081526020016004820160009054906101000a900473ffffffffffffffffffffffffffffffffffffffff1673ffffffffffffffffffffffffffffffffffffffff1673ffffffffffffffffffffffffffffffffffffffff1681526020016004820160149054906101000a900460ff16151515158152602001600582015481525050905060008160400151905060008260600151905060008360800151905060008460a00151905060008560c0015190508d8f86868686869c509c509c509c509c509c509c5050505050505092959891949750929550565b606080606080606080606060008060008a8152602001908152602001600020905060008160020160009054906101000a900461ffff1661ffff1667ffffffffffffffff81111561054a57610549610c86565b5b6040519080825280602002602001820160405280156105785781602001602082028036833780820191505090505b50905060008260020160009054906101000a900461ffff1661ffff1667ffffffffffffffff8111156105ad576105ac610c86565b5b6040519080825280602002602001820160405280156105db5781602001602082028036833780820191505090505b50905060008360020160009054906101000a900461ffff1661ffff1667ffffffffffffffff8111156106105761060f610c86565b5b60405190808252806020026020018201604052801561064357816020015b606081526020019060019003908161062e5790505b50905060008460020160009054906101000a900461ffff1661ffff1667ffffffffffffffff81111561067857610677610c86565b5b6040519080825280602002602001820160405280156106ab57816020015b60608152602001906001900390816106965790505b50905060008560020160009054906101000a900461ffff1661ffff1667ffffffffffffffff8111156106e0576106df610c86565b5b60405190808252806020026020018201604052801561070e5781602001602082028036833780820191505090505b50905060008660020160009054906101000a900461ffff1661ffff1667ffffffffffffffff81111561074357610742610c86565b5b6040519080825280602002602001820160405280156107715781602001602082028036833780820191505090505b50905060008760020160009054906101000a900461ffff1661ffff1667ffffffffffffffff8111156107a6576107a5610c86565b5b6040519080825280602002602001820160405280156107d45781602001602082028036833780820191505090505b50905060005b8860020160009054906101000a900461ffff1661ffff16811015610b315760008960000160008b600101848154811061081657610815611803565b5b906000526020600020015481526020019081526020016000206040518060e0016040529081600082015481526020016001820154815260200160028201805461085e906114d5565b80601f016020809104026020016040519081016040528092919081815260200182805461088a906114d5565b80156108d75780601f106108ac576101008083540402835291602001916108d7565b820191906000526020600020905b8154815290600101906020018083116108ba57829003601f168201915b505050505081526020016003820180546108f0906114d5565b80601f016020809104026020016040519081016040528092919081815260200182805461091c906114d5565b80156109695780601f1061093e57610100808354040283529160200191610969565b820191906000526020600020905b81548152906001019060200180831161094c57829003601f168201915b505050505081526020016004820160009054906101000a900473ffffffffffffffffffffffffffffffffffffffff1673ffffffffffffffffffffffffffffffffffffffff1673ffffffffffffffffffffffffffffffffffffffff1681526020016004820160149054906101000a900460ff1615151515815260200160058201548152505090508060000151898381518110610a0757610a06611803565b5b6020026020010181815250508060200151888381518110610a2b57610a2a611803565b5b6020026020010181815250508060400151878381518110610a4f57610a4e611803565b5b60200260200101819052508060600151868381518110610a7257610a71611803565b5b60200260200101819052508060800151858381518110610a9557610a94611803565b5b602002602001019073ffffffffffffffffffffffffffffffffffffffff16908173ffffffffffffffffffffffffffffffffffffffff16815250508060a00151848381518110610ae757610ae6611803565b5b6020026020010190151590811515815250508060c00151838381518110610b1157610b10611803565b5b602002602001018181525050508080610b2990611832565b9150506107da565b50868686868686869e509e509e509e509e509e509e505050505050505050919395979092949650565b600080848152602001908152602001600020600001600083815260200190815260200160002060040160009054906101000a900473ffffffffffffffffffffffffffffffffffffffff1673ffffffffffffffffffffffffffffffffffffffff163373ffffffffffffffffffffffffffffffffffffffff1614610bdb57600080fd5b80600080858152602001908152602001600020600001600084815260200190815260200160002060040160146101000a81548160ff021916908315150217905550505050565b6000604051905090565b600080fd5b600080fd5b6000819050919050565b610c4881610c35565b8114610c5357600080fd5b50565b600081359050610c6581610c3f565b92915050565b600080fd5b600080fd5b6000601f19601f8301169050919050565b7f4e487b7100000000000000000000000000000000000000000000000000000000600052604160045260246000fd5b610cbe82610c75565b810181811067ffffffffffffffff82111715610cdd57610cdc610c86565b5b80604052505050565b6000610cf0610c21565b9050610cfc8282610cb5565b919050565b600067ffffffffffffffff821115610d1c57610d1b610c86565b5b610d2582610c75565b9050602081019050919050565b82818337600083830152505050565b6000610d54610d4f84610d01565b610ce6565b905082815260208101848484011115610d7057610d6f610c70565b5b610d7b848285610d32565b509392505050565b600082601f830112610d9857610d97610c6b565b5b8135610da8848260208601610d41565b91505092915050565b600080600080600060a08688031215610dcd57610dcc610c2b565b5b6000610ddb88828901610c56565b9550506020610dec88828901610c56565b945050604086013567ffffffffffffffff811115610e0d57610e0c610c30565b5b610e1988828901610d83565b935050606086013567ffffffffffffffff811115610e3a57610e39610c30565b5b610e4688828901610d83565b9250506080610e5788828901610c56565b9150509295509295909350565b60008060408385031215610e7b57610e7a610c2b565b5b6000610e8985828601610c56565b9250506020610e9a85828601610c56565b9150509250929050565b610ead81610c35565b82525050565b600081519050919050565b600082825260208201905092915050565b60005b83811015610eed578082015181840152602081019050610ed2565b83811115610efc576000848401525b50505050565b6000610f0d82610eb3565b610f178185610ebe565b9350610f27818560208601610ecf565b610f3081610c75565b840191505092915050565b600073ffffffffffffffffffffffffffffffffffffffff82169050919050565b6000610f6682610f3b565b9050919050565b610f7681610f5b565b82525050565b60008115159050919050565b610f9181610f7c565b82525050565b600060e082019050610fac600083018a610ea4565b610fb96020830189610ea4565b8181036040830152610fcb8188610f02565b90508181036060830152610fdf8187610f02565b9050610fee6080830186610f6d565b610ffb60a0830185610f88565b61100860c0830184610ea4565b98975050505050505050565b60006020828403121561102a57611029610c2b565b5b600061103884828501610c56565b91505092915050565b600081519050919050565b600082825260208201905092915050565b6000819050602082019050919050565b61107681610c35565b82525050565b6000611088838361106d565b60208301905092915050565b6000602082019050919050565b60006110ac82611041565b6110b6818561104c565b93506110c18361105d565b8060005b838110156110f25781516110d9888261107c565b97506110e483611094565b9250506001810190506110c5565b5085935050505092915050565b600081519050919050565b600082825260208201905092915050565b6000819050602082019050919050565b600082825260208201905092915050565b600061114782610eb3565b611151818561112b565b9350611161818560208601610ecf565b61116a81610c75565b840191505092915050565b6000611181838361113c565b905092915050565b6000602082019050919050565b60006111a1826110ff565b6111ab818561110a565b9350836020820285016111bd8561111b565b8060005b858110156111f957848403895281516111da8582611175565b94506111e583611189565b925060208a019950506001810190506111c1565b50829750879550505050505092915050565b600081519050919050565b600082825260208201905092915050565b6000819050602082019050919050565b61124081610f5b565b82525050565b60006112528383611237565b60208301905092915050565b6000602082019050919050565b60006112768261120b565b6112808185611216565b935061128b83611227565b8060005b838110156112bc5781516112a38882611246565b97506112ae8361125e565b92505060018101905061128f565b5085935050505092915050565b600081519050919050565b600082825260208201905092915050565b6000819050602082019050919050565b6112fe81610f7c565b82525050565b600061131083836112f5565b60208301905092915050565b6000602082019050919050565b6000611334826112c9565b61133e81856112d4565b9350611349836112e5565b8060005b8381101561137a5781516113618882611304565b975061136c8361131c565b92505060018101905061134d565b5085935050505092915050565b600060e08201905081810360008301526113a1818a6110a1565b905081810360208301526113b581896110a1565b905081810360408301526113c98188611196565b905081810360608301526113dd8187611196565b905081810360808301526113f1818661126b565b905081810360a08301526114058185611329565b905081810360c083015261141981846110a1565b905098975050505050505050565b61143081610f7c565b811461143b57600080fd5b50565b60008135905061144d81611427565b92915050565b60008060006060848603121561146c5761146b610c2b565b5b600061147a86828701610c56565b935050602061148b86828701610c56565b925050604061149c8682870161143e565b9150509250925092565b7f4e487b7100000000000000000000000000000000000000000000000000000000600052602260045260246000fd5b600060028204905060018216806114ed57607f821691505b602082108103611500576114ff6114a6565b5b50919050565b60008190508160005260206000209050919050565b60006020601f8301049050919050565b600082821b905092915050565b6000600883026115687fffffffffffffffffffffffffffffffffffffffffffffffffffffffffffffffff8261152b565b611572868361152b565b95508019841693508086168417925050509392505050565b6000819050919050565b6000819050919050565b60006115b96115b46115af8461158a565b611594565b61158a565b9050919050565b6000819050919050565b6115d38361159e565b6115e76115df826115c0565b848454611538565b825550505050565b600090565b6115fc6115ef565b6116078184846115ca565b505050565b5b8181101561162b576116206000826115f4565b60018101905061160d565b5050565b601f8211156116705761164181611506565b61164a8461151b565b81016020851015611659578190505b61166d6116658561151b565b83018261160c565b50505b505050565b600082821c905092915050565b600061169360001984600802611675565b1980831691505092915050565b60006116ac8383611682565b9150826002028217905092915050565b6116c582610eb3565b67ffffffffffffffff8111156116de576116dd610c86565b5b6116e882546114d5565b6116f382828561162f565b600060209050601f8311600181146117265760008415611714578287015190505b61171e85826116a0565b865550611786565b601f19841661173486611506565b60005b8281101561175c57848901518255600182019150602085019450602081019050611737565b868310156117795784890151611775601f891682611682565b8355505b6001600288020188555050505b505050505050565b600061ffff82169050919050565b7f4e487b7100000000000000000000000000000000000000000000000000000000600052601160045260246000fd5b60006117d68261178e565b91506117e18361178e565b92508261ffff038211156117f8576117f761179c565b5b828201905092915050565b7f4e487b7100000000000000000000000000000000000000000000000000000000600052603260045260246000fd5b600061183d8261158a565b91507fffffffffffffffffffffffffffffffffffffffffffffffffffffffffffffffff820361186f5761186e61179c565b5b60018201905091905056fea26469706673582212207c525126cfe55e4f60e50c8cb117667936cc35cf364c80f764abdb1e0fb9a30f64736f6c634300080f0033",
  "immutableReferences": {},
  "source": "// SPDX-License-Identifier: MIT\npragma solidity >=0.8.0 <0.9.0;\n\ncontract PackagesAll {\n  \n\n  struct Package{\n    bytes32 packageId;\n    bytes32 senderId;\n    string receiverAddress;\n    string description;\n    address owner;\n    bool isReceived;\n    bytes32 shipmentDate;\n  }\n\n  struct UserPackages  {\n    mapping (bytes32=> Package) packages;\n    bytes32[] index;\n    uint16 count;\n\n  }\n  mapping (bytes32=>UserPackages) userPackages;\n\n  constructor(){\n\n  }\n\n function getMyPackages(bytes32 userId) public view returns(\n bytes32[] memory,\n bytes32[] memory,\n string[] memory,\n string[] memory,\n address[] memory,\n bool[] memory,\n bytes32[] memory\n ) {\n\n//paketi za jednog korisnika\nUserPackages storage userPackagesTemp = userPackages[userId];\n\nbytes32[] memory arrayPackageId = new bytes32[](userPackagesTemp.count);\nbytes32[] memory arraySenderId = new bytes32[](userPackagesTemp.count);\nstring[] memory arrayReceiverAddress = new string[](userPackagesTemp.count);\nstring[] memory arrayDescription = new string[](userPackagesTemp.count);\naddress[] memory arrayOwner = new address[](userPackagesTemp.count);\nbool[] memory arrayIsReceived = new bool[](userPackagesTemp.count);\nbytes32[] memory arrayDate = new bytes32[](userPackagesTemp.count);\n\n\nfor (uint i = 0; i < userPackagesTemp.count; i++) {\n    Package memory member = userPackagesTemp.packages[userPackagesTemp.index[i]];\n    arrayPackageId[i] = member.packageId;\n    arraySenderId[i] = member.senderId;\n    arrayReceiverAddress[i] = member.receiverAddress;\n    arrayDescription[i] = member.description;\n    arrayOwner[i] = member.owner;\n    arrayIsReceived[i] = member.isReceived;\n    arrayDate[i] = member.shipmentDate;\n}\n\nreturn (\n  arrayPackageId,\n  arraySenderId,\n  arrayReceiverAddress, \n  arrayDescription, \n  arrayOwner, \n  arrayIsReceived,\n  arrayDate);\n}\n\n\n\nfunction addPackageFree( \n  bytes32 packageId,\n  bytes32 senderId, \n  string memory receiverAddress, \n  string memory description,\n  bytes32 shipmentDate) public {\n\nPackage memory package =  Package({\n  packageId:packageId, \n  senderId: senderId,  \n  receiverAddress: receiverAddress, \n  description:description, \n  owner:msg.sender,  \n  isReceived: false,\n  shipmentDate: shipmentDate\n});\n\nuserPackages[senderId].packages[packageId] = package;\nuserPackages[senderId].index.push(packageId);\nuserPackages[senderId].count+=1;\n\n}\n\nfunction setReceived(bytes32 userId,bytes32 packageId, bool value) public{\n\n require(msg.sender == userPackages[userId].packages[packageId].owner);\n userPackages[userId].packages[packageId].isReceived = value;\n  \n}\n\n\nfunction getOne(bytes32 userId, bytes32 packageId) public view returns(\n  bytes32, \n  bytes32,\n  string memory,\n  string memory,\n  address,\n  bool,\n  bytes32\n  ) {\n\n    Package memory package = userPackages[userId].packages[packageId];  \n\n\n    string memory receiverAddress = package.receiverAddress;\n    string memory description = package.description;\n    address owner = package.owner;\n    bool isReceived = package.isReceived;\n    bytes32 shipmentDate = package.shipmentDate;\n\nreturn (\n  packageId,\n  userId,\n  receiverAddress, \n  description, \n  owner, \n  isReceived,\n  shipmentDate);\n}\n\n\n\n\n}",
  "sourcePath": "/Users/andrejbatarilo/Desktop/ethereum-shipping/ethereum-shipping-system-truffle/app/contracts/PackagesAll.sol",
  "compiler": {
    "name": "solc",
    "version": "0.8.15+commit.e14f2714.Emscripten.clang"
  },
  "schemaVersion": "3.4.8",
  "updatedAt": "2022-09-07T17:31:03.451Z",
  "networkType": "ethereum",
  "devdoc": {
    "kind": "dev",
    "methods": {},
    "version": 1
  },
  "userdoc": {
    "kind": "user",
    "methods": {},
    "version": 1
  }
}