{
  "contractName": "PackagesAll",
  "abi": [
    {
      "inputs": [],
      "stateMutability": "nonpayable",
      "type": "constructor"
    },
    {
      "inputs": [
        {
          "internalType": "bytes32",
          "name": "userId",
          "type": "bytes32"
        }
      ],
      "name": "getMyPackages",
      "outputs": [
        {
          "internalType": "bytes32[]",
          "name": "",
          "type": "bytes32[]"
        },
        {
          "internalType": "bytes32[]",
          "name": "",
          "type": "bytes32[]"
        },
        {
          "internalType": "bytes32[]",
          "name": "",
          "type": "bytes32[]"
        },
        {
          "internalType": "bytes32[]",
          "name": "",
          "type": "bytes32[]"
        },
        {
          "internalType": "address[]",
          "name": "",
          "type": "address[]"
        },
        {
          "internalType": "bool[]",
          "name": "",
          "type": "bool[]"
        }
      ],
      "stateMutability": "view",
      "type": "function",
      "constant": true
    },
    {
      "inputs": [
        {
          "internalType": "bytes32",
          "name": "packageId",
          "type": "bytes32"
        },
        {
          "internalType": "bytes32",
          "name": "senderId",
          "type": "bytes32"
        },
        {
          "internalType": "bytes32",
          "name": "receiverAddress",
          "type": "bytes32"
        },
        {
          "internalType": "bytes32",
          "name": "description",
          "type": "bytes32"
        }
      ],
      "name": "addPackageFree",
      "outputs": [],
      "stateMutability": "nonpayable",
      "type": "function"
    },
    {
      "inputs": [
        {
          "internalType": "bytes32",
          "name": "userId",
          "type": "bytes32"
        },
        {
          "internalType": "bytes32",
          "name": "packageId",
          "type": "bytes32"
        },
        {
          "internalType": "bool",
          "name": "value",
          "type": "bool"
        }
      ],
      "name": "setReceived",
      "outputs": [],
      "stateMutability": "nonpayable",
      "type": "function"
    },
    {
      "inputs": [
        {
          "internalType": "bytes32",
          "name": "userId",
          "type": "bytes32"
        }
      ],
      "name": "getOne",
      "outputs": [
        {
          "internalType": "uint256",
          "name": "",
          "type": "uint256"
        }
      ],
      "stateMutability": "view",
      "type": "function",
      "constant": true
    }
  ],
  "bytecode": "0x608060405234801561001057600080fd5b50610d80806100206000396000f3fe608060405234801561001057600080fd5b506004361061004c5760003560e01c80634d70e36a14610051578063eea61de41461006d578063f28d97f9146100a2578063fc8d129b146100be575b600080fd5b61006b600480360381019061006691906107e5565b6100ee565b005b6100876004803603810190610082919061084c565b610281565b60405161009996959493929190610af1565b60405180910390f35b6100bc60048036038101906100b79190610ba8565b610733565b005b6100d860048036038101906100d3919061084c565b610779565b6040516100e59190610c14565b60405180910390f35b60006040518060c001604052808681526020018581526020018481526020018381526020013373ffffffffffffffffffffffffffffffffffffffff1681526020016000151581525090508060008086815260200190815260200160002060000160008781526020019081526020016000206000820151816000015560208201518160010155604082015181600201556060820151816003015560808201518160040160006101000a81548173ffffffffffffffffffffffffffffffffffffffff021916908373ffffffffffffffffffffffffffffffffffffffff16021790555060a08201518160040160146101000a81548160ff021916908315150217905550905050600080858152602001908152602001600020600101859080600181540180825580915050600190039060005260206000200160009091909190915055600160008086815260200190815260200160002060020160008282829054906101000a900461ffff166102609190610c6c565b92506101000a81548161ffff021916908361ffff1602179055505050505050565b6060806060806060806000806000898152602001908152602001600020905060008160020160009054906101000a900461ffff1661ffff1667ffffffffffffffff8111156102d2576102d1610ca4565b5b6040519080825280602002602001820160405280156103005781602001602082028036833780820191505090505b50905060008260020160009054906101000a900461ffff1661ffff1667ffffffffffffffff81111561033557610334610ca4565b5b6040519080825280602002602001820160405280156103635781602001602082028036833780820191505090505b50905060008360020160009054906101000a900461ffff1661ffff1667ffffffffffffffff81111561039857610397610ca4565b5b6040519080825280602002602001820160405280156103c65781602001602082028036833780820191505090505b50905060008460020160009054906101000a900461ffff1661ffff1667ffffffffffffffff8111156103fb576103fa610ca4565b5b6040519080825280602002602001820160405280156104295781602001602082028036833780820191505090505b50905060008560020160009054906101000a900461ffff1661ffff1667ffffffffffffffff81111561045e5761045d610ca4565b5b60405190808252806020026020018201604052801561048c5781602001602082028036833780820191505090505b50905060008660020160009054906101000a900461ffff1661ffff1667ffffffffffffffff8111156104c1576104c0610ca4565b5b6040519080825280602002602001820160405280156104ef5781602001602082028036833780820191505090505b50905060005b8760020160009054906101000a900461ffff1661ffff168110156107105760008860000160008a600101848154811061053157610530610cd3565b5b906000526020600020015481526020019081526020016000206040518060c0016040529081600082015481526020016001820154815260200160028201548152602001600382015481526020016004820160009054906101000a900473ffffffffffffffffffffffffffffffffffffffff1673ffffffffffffffffffffffffffffffffffffffff1673ffffffffffffffffffffffffffffffffffffffff1681526020016004820160149054906101000a900460ff1615151515815250509050806000015188838151811061060857610607610cd3565b5b602002602001018181525050806020015187838151811061062c5761062b610cd3565b5b60200260200101818152505080604001518683815181106106505761064f610cd3565b5b602002602001018181525050806060015185838151811061067457610673610cd3565b5b602002602001018181525050806080015184838151811061069857610697610cd3565b5b602002602001019073ffffffffffffffffffffffffffffffffffffffff16908173ffffffffffffffffffffffffffffffffffffffff16815250508060a001518383815181106106ea576106e9610cd3565b5b60200260200101901515908115158152505050808061070890610d02565b9150506104f5565b508585858585859c509c509c509c509c509c505050505050505091939550919395565b80600080858152602001908152602001600020600001600084815260200190815260200160002060040160146101000a81548160ff021916908315150217905550505050565b600080600083815260200190815260200160002060020160009054906101000a900461ffff1661ffff169050919050565b600080fd5b6000819050919050565b6107c2816107af565b81146107cd57600080fd5b50565b6000813590506107df816107b9565b92915050565b600080600080608085870312156107ff576107fe6107aa565b5b600061080d878288016107d0565b945050602061081e878288016107d0565b935050604061082f878288016107d0565b9250506060610840878288016107d0565b91505092959194509250565b600060208284031215610862576108616107aa565b5b6000610870848285016107d0565b91505092915050565b600081519050919050565b600082825260208201905092915050565b6000819050602082019050919050565b6108ae816107af565b82525050565b60006108c083836108a5565b60208301905092915050565b6000602082019050919050565b60006108e482610879565b6108ee8185610884565b93506108f983610895565b8060005b8381101561092a57815161091188826108b4565b975061091c836108cc565b9250506001810190506108fd565b5085935050505092915050565b600081519050919050565b600082825260208201905092915050565b6000819050602082019050919050565b600073ffffffffffffffffffffffffffffffffffffffff82169050919050565b600061098e82610963565b9050919050565b61099e81610983565b82525050565b60006109b08383610995565b60208301905092915050565b6000602082019050919050565b60006109d482610937565b6109de8185610942565b93506109e983610953565b8060005b83811015610a1a578151610a0188826109a4565b9750610a0c836109bc565b9250506001810190506109ed565b5085935050505092915050565b600081519050919050565b600082825260208201905092915050565b6000819050602082019050919050565b60008115159050919050565b610a6881610a53565b82525050565b6000610a7a8383610a5f565b60208301905092915050565b6000602082019050919050565b6000610a9e82610a27565b610aa88185610a32565b9350610ab383610a43565b8060005b83811015610ae4578151610acb8882610a6e565b9750610ad683610a86565b925050600181019050610ab7565b5085935050505092915050565b600060c0820190508181036000830152610b0b81896108d9565b90508181036020830152610b1f81886108d9565b90508181036040830152610b3381876108d9565b90508181036060830152610b4781866108d9565b90508181036080830152610b5b81856109c9565b905081810360a0830152610b6f8184610a93565b9050979650505050505050565b610b8581610a53565b8114610b9057600080fd5b50565b600081359050610ba281610b7c565b92915050565b600080600060608486031215610bc157610bc06107aa565b5b6000610bcf868287016107d0565b9350506020610be0868287016107d0565b9250506040610bf186828701610b93565b9150509250925092565b6000819050919050565b610c0e81610bfb565b82525050565b6000602082019050610c296000830184610c05565b92915050565b600061ffff82169050919050565b7f4e487b7100000000000000000000000000000000000000000000000000000000600052601160045260246000fd5b6000610c7782610c2f565b9150610c8283610c2f565b92508261ffff03821115610c9957610c98610c3d565b5b828201905092915050565b7f4e487b7100000000000000000000000000000000000000000000000000000000600052604160045260246000fd5b7f4e487b7100000000000000000000000000000000000000000000000000000000600052603260045260246000fd5b6000610d0d82610bfb565b91507fffffffffffffffffffffffffffffffffffffffffffffffffffffffffffffffff8203610d3f57610d3e610c3d565b5b60018201905091905056fea2646970667358221220f4766f67bf020d421b5829d0aa78cd5571bfef39823c5f6afca825a113315a0b64736f6c634300080f0033",
  "immutableReferences": {},
  "source": "// SPDX-License-Identifier: MIT\npragma solidity >=0.8.0 <0.9.0;\n\ncontract PackagesAll {\n  \n\n  struct Package{\n    bytes32 packageId;\n    bytes32 senderId;\n    bytes32 receiverAddress;\n    bytes32 description;\n    address owner;\n    bool isReceived;\n  }\n\n  struct UserPackages  {\n    mapping (bytes32=> Package) packages;\n    bytes32[] index;\n    uint16 count;\n\n  }\n  mapping (bytes32=>UserPackages) userPackages;\n\n  constructor(){\n\n  }\n\n function getMyPackages(bytes32 userId) public view returns(\n bytes32[] memory,\n bytes32[] memory,\n bytes32[] memory,\n bytes32[] memory,\n address[] memory,\n bool[] memory\n ) {\n\n//paketi za jednog korisnika\nUserPackages storage userPackagesTemp = userPackages[userId];\n\nbytes32[] memory arrayPackageId = new bytes32[](userPackagesTemp.count);\nbytes32[] memory arraySenderId = new bytes32[](userPackagesTemp.count);\nbytes32[] memory arrayReceiverAddress = new bytes32[](userPackagesTemp.count);\nbytes32[] memory arrayDescription = new bytes32[](userPackagesTemp.count);\naddress[] memory arrayOwner = new address[](userPackagesTemp.count);\nbool[] memory arrayIsReceived = new bool[](userPackagesTemp.count);\n\n\n\nfor (uint i = 0; i < userPackagesTemp.count; i++) {\n    Package memory member = userPackagesTemp.packages[userPackagesTemp.index[i]];\n    arrayPackageId[i] = member.packageId;\n    arraySenderId[i] = member.senderId;\n    arrayReceiverAddress[i] = member.receiverAddress;\n    arrayDescription[i] = member.description;\n    arrayOwner[i] = member.owner;\n    arrayIsReceived[i] = member.isReceived;\n\n}\n\nreturn (\n  arrayPackageId,\n  arraySenderId,\n  arrayReceiverAddress, \n  arrayDescription, \n  arrayOwner, \n  arrayIsReceived);\n\n\n}\n\n\n\nfunction addPackageFree( \n  bytes32 packageId,\n  bytes32 senderId, \n  bytes32 receiverAddress, \n  bytes32 description) public {\n\nPackage memory package =  Package({\n  packageId:packageId, \nsenderId: senderId,  receiverAddress: receiverAddress, description:description, owner:msg.sender,  isReceived: false});\n\nuserPackages[senderId].packages[packageId] = package;\nuserPackages[senderId].index.push(packageId);\nuserPackages[senderId].count+=1;\n\n}\n\nfunction setReceived(bytes32 userId,bytes32 packageId, bool value) public{\n\n userPackages[userId].packages[packageId].isReceived = value;\n  \n\n}\n\n\nfunction getOne(bytes32 userId) public view returns(uint) {\n\n\n\nreturn userPackages[userId].count;\n}\n\n\n\n\n}",
  "sourcePath": "/Users/andrejbatarilo/Desktop/ethereum-shipping/ethereum-shipping-system-truffle/app/contracts/PackagesAll.sol",
  "compiler": {
    "name": "solc",
    "version": "0.8.15+commit.e14f2714.Emscripten.clang"
  },
  "schemaVersion": "3.4.8",
  "updatedAt": "2022-08-12T12:14:25.949Z",
  "networkType": "ethereum",
  "devdoc": {
    "kind": "dev",
    "methods": {},
    "version": 1
  },
  "userdoc": {
    "kind": "user",
    "methods": {},
    "version": 1
  }
}