{
  "contractName": "PackagesAll",
  "abi": [
    {
      "inputs": [],
      "stateMutability": "nonpayable",
      "type": "constructor"
    },
    {
      "inputs": [],
      "name": "getMyPackages",
      "outputs": [
        {
          "internalType": "uint32[]",
          "name": "",
          "type": "uint32[]"
        }
      ],
      "stateMutability": "nonpayable",
      "type": "function"
    },
    {
      "inputs": [
        {
          "internalType": "bytes32",
          "name": "userId",
          "type": "bytes32"
        },
        {
          "internalType": "uint32",
          "name": "senderId",
          "type": "uint32"
        },
        {
          "internalType": "bytes32",
          "name": "description",
          "type": "bytes32"
        }
      ],
      "name": "addPackageFree",
      "outputs": [],
      "stateMutability": "nonpayable",
      "type": "function"
    },
    {
      "inputs": [
        {
          "internalType": "bytes32",
          "name": "userId",
          "type": "bytes32"
        },
        {
          "internalType": "uint32",
          "name": "senderId",
          "type": "uint32"
        },
        {
          "internalType": "bytes32",
          "name": "description",
          "type": "bytes32"
        },
        {
          "internalType": "address",
          "name": "receiver",
          "type": "address"
        }
      ],
      "name": "addPackagePaid",
      "outputs": [],
      "stateMutability": "nonpayable",
      "type": "function"
    },
    {
      "inputs": [],
      "name": "getOne",
      "outputs": [
        {
          "internalType": "uint256",
          "name": "",
          "type": "uint256"
        }
      ],
      "stateMutability": "nonpayable",
      "type": "function"
    }
  ],
  "bytecode": "0x608060405234801561001057600080fd5b50610c8c806100206000396000f3fe608060405234801561001057600080fd5b506004361061004c5760003560e01c8063222a53e314610051578063833fee781461006f578063ab5ed1501461008b578063d198b1b9146100a9575b600080fd5b6100596100c5565b60405161006691906109ac565b60405180910390f35b61008960048036038101906100849190610a93565b610346565b005b610093610532565b6040516100a09190610b13565b60405180910390f35b6100c360048036038101906100be9190610b2e565b6106f2565b005b606060008060003373ffffffffffffffffffffffffffffffffffffffff1673ffffffffffffffffffffffffffffffffffffffff168152602001908152602001600020600001805480602002602001604051908101604052809291908181526020016000905b8282101561027857838290600052602060002090600502016040518060e00160405290816000820160009054906101000a900463ffffffff1663ffffffff1663ffffffff1681526020016000820160049054906101000a900473ffffffffffffffffffffffffffffffffffffffff1673ffffffffffffffffffffffffffffffffffffffff1673ffffffffffffffffffffffffffffffffffffffff1681526020016001820160009054906101000a900473ffffffffffffffffffffffffffffffffffffffff1673ffffffffffffffffffffffffffffffffffffffff1673ffffffffffffffffffffffffffffffffffffffff16815260200160028201548152602001600382015481526020016004820160009054906101000a900460ff161515151581526020016004820160019054906101000a900460ff1615151515815250508152602001906001019061012a565b5050505090506000815167ffffffffffffffff81111561029b5761029a610b81565b5b6040519080825280602002602001820160405280156102c95781602001602082028036833780820191505090505b50905060005b825181101561033d5760008382815181106102ed576102ec610bb0565b5b60200260200101519050806000015183838151811061030f5761030e610bb0565b5b602002602001019063ffffffff16908163ffffffff168152505050808061033590610c0e565b9150506102cf565b50809250505090565b60006040518060e001604052808563ffffffff1681526020013373ffffffffffffffffffffffffffffffffffffffff1681526020018373ffffffffffffffffffffffffffffffffffffffff1681526020018681526020018481526020016000151581526020016000151581525090506000803373ffffffffffffffffffffffffffffffffffffffff1673ffffffffffffffffffffffffffffffffffffffff16815260200190815260200160002060000181908060018154018082558091505060019003906000526020600020906005020160009091909190915060008201518160000160006101000a81548163ffffffff021916908363ffffffff16021790555060208201518160000160046101000a81548173ffffffffffffffffffffffffffffffffffffffff021916908373ffffffffffffffffffffffffffffffffffffffff16021790555060408201518160010160006101000a81548173ffffffffffffffffffffffffffffffffffffffff021916908373ffffffffffffffffffffffffffffffffffffffff160217905550606082015181600201556080820151816003015560a08201518160040160006101000a81548160ff02191690831515021790555060c08201518160040160016101000a81548160ff02191690831515021790555050505050505050565b6000806000803373ffffffffffffffffffffffffffffffffffffffff1673ffffffffffffffffffffffffffffffffffffffff168152602001908152602001600020600001805480602002602001604051908101604052809291908181526020016000905b828210156106e457838290600052602060002090600502016040518060e00160405290816000820160009054906101000a900463ffffffff1663ffffffff1663ffffffff1681526020016000820160049054906101000a900473ffffffffffffffffffffffffffffffffffffffff1673ffffffffffffffffffffffffffffffffffffffff1673ffffffffffffffffffffffffffffffffffffffff1681526020016001820160009054906101000a900473ffffffffffffffffffffffffffffffffffffffff1673ffffffffffffffffffffffffffffffffffffffff1673ffffffffffffffffffffffffffffffffffffffff16815260200160028201548152602001600382015481526020016004820160009054906101000a900460ff161515151581526020016004820160019054906101000a900460ff16151515158152505081526020019060010190610596565b505050509050805191505090565b60006040518060e001604052808463ffffffff1681526020013373ffffffffffffffffffffffffffffffffffffffff168152602001600073ffffffffffffffffffffffffffffffffffffffff1681526020018581526020018381526020016000151581526020016000151581525090506000803373ffffffffffffffffffffffffffffffffffffffff1673ffffffffffffffffffffffffffffffffffffffff16815260200190815260200160002060000181908060018154018082558091505060019003906000526020600020906005020160009091909190915060008201518160000160006101000a81548163ffffffff021916908363ffffffff16021790555060208201518160000160046101000a81548173ffffffffffffffffffffffffffffffffffffffff021916908373ffffffffffffffffffffffffffffffffffffffff16021790555060408201518160010160006101000a81548173ffffffffffffffffffffffffffffffffffffffff021916908373ffffffffffffffffffffffffffffffffffffffff160217905550606082015181600201556080820151816003015560a08201518160040160006101000a81548160ff02191690831515021790555060c08201518160040160016101000a81548160ff021916908315150217905550505050505050565b600081519050919050565b600082825260208201905092915050565b6000819050602082019050919050565b600063ffffffff82169050919050565b6109238161090a565b82525050565b6000610935838361091a565b60208301905092915050565b6000602082019050919050565b6000610959826108de565b61096381856108e9565b935061096e836108fa565b8060005b8381101561099f5781516109868882610929565b975061099183610941565b925050600181019050610972565b5085935050505092915050565b600060208201905081810360008301526109c6818461094e565b905092915050565b600080fd5b6000819050919050565b6109e6816109d3565b81146109f157600080fd5b50565b600081359050610a03816109dd565b92915050565b610a128161090a565b8114610a1d57600080fd5b50565b600081359050610a2f81610a09565b92915050565b600073ffffffffffffffffffffffffffffffffffffffff82169050919050565b6000610a6082610a35565b9050919050565b610a7081610a55565b8114610a7b57600080fd5b50565b600081359050610a8d81610a67565b92915050565b60008060008060808587031215610aad57610aac6109ce565b5b6000610abb878288016109f4565b9450506020610acc87828801610a20565b9350506040610add878288016109f4565b9250506060610aee87828801610a7e565b91505092959194509250565b6000819050919050565b610b0d81610afa565b82525050565b6000602082019050610b286000830184610b04565b92915050565b600080600060608486031215610b4757610b466109ce565b5b6000610b55868287016109f4565b9350506020610b6686828701610a20565b9250506040610b77868287016109f4565b9150509250925092565b7f4e487b7100000000000000000000000000000000000000000000000000000000600052604160045260246000fd5b7f4e487b7100000000000000000000000000000000000000000000000000000000600052603260045260246000fd5b7f4e487b7100000000000000000000000000000000000000000000000000000000600052601160045260246000fd5b6000610c1982610afa565b91507fffffffffffffffffffffffffffffffffffffffffffffffffffffffffffffffff8203610c4b57610c4a610bdf565b5b60018201905091905056fea2646970667358221220970e570baaf082fbe22377e778abc18895db19ccedc203b5a54c6e4cfaca234164736f6c634300080f0033",
  "immutableReferences": {},
  "source": "// SPDX-License-Identifier: MIT\npragma solidity >=0.8.0 <0.9.0;\n\ncontract PackagesAll {\n \n\n  \n\n  struct Package{\n    uint32 senderId;\n    address owner;\n    address receiver;\n    bytes32 userId;\n    bytes32 description;\n    bool isPaid;\n    bool isReceived;\n  }\n\n  struct UserPackages  {\n    Package[] packages;\n\n  }\n  mapping (address=>UserPackages) userPackages;\n\n  constructor(){\n\n  }\n\n function getMyPackages() public returns(uint32[] memory) {\n   \n\n\nPackage[] memory packages = userPackages[msg.sender].packages;\n\nuint32[] memory array = new uint32[](packages.length);\n\nfor (uint i = 0; i < packages.length; i++) {\n    Package memory member = packages[i];\n    array[i] = member.senderId;\n}\n\nreturn array;\n}\n\n\n\nfunction addPackageFree(bytes32 userId, uint32 senderId, bytes32 description) public {\n\nPackage memory package =  Package({senderId: senderId, receiver:address(0), description:description, owner:msg.sender, isPaid:false, userId: userId, isReceived: false});\n\nuserPackages[msg.sender].packages.push(package);\n\n}\n\nfunction addPackagePaid(bytes32 userId, uint32 senderId, bytes32 description, address receiver ) public {\n\n  Package memory package =  \n  Package({\n     senderId: senderId,\n     receiver:receiver, \n     description:description, \n     owner:msg.sender, \n     isPaid:false, \n     userId: userId, \n     isReceived:false});\n  \n  userPackages[msg.sender].packages.push(package);\n  \n  }\n\nfunction getOne() public returns(uint) {\n\n\nPackage[] memory packages = userPackages[msg.sender].packages;\nreturn packages.length;\n}\n\n}",
  "sourcePath": "/home/dre/Documents/ether-node/ethereum-shipping-system-truffle/app/contracts/PackagesAll.sol",
  "compiler": {
    "name": "solc",
    "version": "0.8.15+commit.e14f2714.Emscripten.clang"
  },
  "schemaVersion": "3.4.8",
  "updatedAt": "2022-08-02T14:36:54.899Z",
  "networkType": "ethereum",
  "devdoc": {
    "kind": "dev",
    "methods": {},
    "version": 1
  },
  "userdoc": {
    "kind": "user",
    "methods": {},
    "version": 1
  }
}