{
  "contractName": "PackagesAll",
  "abi": [
    {
      "inputs": [],
      "stateMutability": "nonpayable",
      "type": "constructor"
    },
    {
      "inputs": [],
      "name": "getMyPackages",
      "outputs": [
        {
          "internalType": "uint32[]",
          "name": "",
          "type": "uint32[]"
        }
      ],
      "stateMutability": "nonpayable",
      "type": "function"
    },
    {
      "inputs": [
        {
          "internalType": "address",
          "name": "receiver",
          "type": "address"
        },
        {
          "internalType": "uint32",
          "name": "id",
          "type": "uint32"
        }
      ],
      "name": "addPackage",
      "outputs": [],
      "stateMutability": "nonpayable",
      "type": "function"
    }
  ],
  "bytecode": "0x608060405234801561001057600080fd5b506106b6806100206000396000f3fe608060405234801561001057600080fd5b50600436106100365760003560e01c8063222a53e31461003b5780632aea208d14610059575b600080fd5b610043610075565b60405161005091906104df565b60405180910390f35b610073600480360381019061006e9190610590565b610269565b005b60608060008060003373ffffffffffffffffffffffffffffffffffffffff1673ffffffffffffffffffffffffffffffffffffffff168152602001908152602001600020600001805480602002602001604051908101604052809291908181526020016000905b828210156101e957838290600052602060002090600302016040518060800160405290816000820160009054906101000a900463ffffffff1663ffffffff1663ffffffff1681526020016000820160049054906101000a900473ffffffffffffffffffffffffffffffffffffffff1673ffffffffffffffffffffffffffffffffffffffff1673ffffffffffffffffffffffffffffffffffffffff1681526020016001820160009054906101000a900473ffffffffffffffffffffffffffffffffffffffff1673ffffffffffffffffffffffffffffffffffffffff1673ffffffffffffffffffffffffffffffffffffffff168152602001600282015481525050815260200190600101906100db565b50505050905060005b81518110156102605760008282815181106102105761020f6105d0565b5b602002602001015190508060000151848381518110610232576102316105d0565b5b602002602001019063ffffffff16908163ffffffff168152505050808061025890610638565b9150506101f2565b50819250505090565b600060405180608001604052808363ffffffff1681526020013373ffffffffffffffffffffffffffffffffffffffff1681526020018473ffffffffffffffffffffffffffffffffffffffff1681526020017f746573740000000000000000000000000000000000000000000000000000000081525090506000803373ffffffffffffffffffffffffffffffffffffffff1673ffffffffffffffffffffffffffffffffffffffff16815260200190815260200160002060000181908060018154018082558091505060019003906000526020600020906003020160009091909190915060008201518160000160006101000a81548163ffffffff021916908363ffffffff16021790555060208201518160000160046101000a81548173ffffffffffffffffffffffffffffffffffffffff021916908373ffffffffffffffffffffffffffffffffffffffff16021790555060408201518160010160006101000a81548173ffffffffffffffffffffffffffffffffffffffff021916908373ffffffffffffffffffffffffffffffffffffffff160217905550606082015181600201555050505050565b600081519050919050565b600082825260208201905092915050565b6000819050602082019050919050565b600063ffffffff82169050919050565b6104568161043d565b82525050565b6000610468838361044d565b60208301905092915050565b6000602082019050919050565b600061048c82610411565b610496818561041c565b93506104a18361042d565b8060005b838110156104d25781516104b9888261045c565b97506104c483610474565b9250506001810190506104a5565b5085935050505092915050565b600060208201905081810360008301526104f98184610481565b905092915050565b600080fd5b600073ffffffffffffffffffffffffffffffffffffffff82169050919050565b600061053182610506565b9050919050565b61054181610526565b811461054c57600080fd5b50565b60008135905061055e81610538565b92915050565b61056d8161043d565b811461057857600080fd5b50565b60008135905061058a81610564565b92915050565b600080604083850312156105a7576105a6610501565b5b60006105b58582860161054f565b92505060206105c68582860161057b565b9150509250929050565b7f4e487b7100000000000000000000000000000000000000000000000000000000600052603260045260246000fd5b7f4e487b7100000000000000000000000000000000000000000000000000000000600052601160045260246000fd5b6000819050919050565b60006106438261062e565b91507fffffffffffffffffffffffffffffffffffffffffffffffffffffffffffffffff8203610675576106746105ff565b5b60018201905091905056fea2646970667358221220ad2223d1c2f2a52c48fa056b9f1a499626c0ccdff8d405c8432698b24cd2bf9964736f6c634300080f0033",
  "immutableReferences": {},
  "source": "// SPDX-License-Identifier: MIT\npragma solidity >=0.8.0 <0.9.0;\n\ncontract PackagesAll {\n \n\n  \n\n  struct Package{\n    uint32 id;\n    address owner;\n    address receiver;\n    bytes32 description;\n  }\n\n  struct UserPackages  {\n    Package[] packages;\n    int16 count;\n\n  }\n  mapping (address=>UserPackages) userPackages;\n\n  constructor(){\n\n  }\n\n function getMyPackages() public returns(uint32[] memory) {\n   \n\nuint32[] memory array;\n\nPackage[] memory packages = userPackages[msg.sender].packages;\n\nfor (uint i = 0; i < packages.length; i++) {\n    Package memory member = packages[i];\n    array[i] = member.id;\n}\n\nreturn array;\n}\n\n\nfunction addPackage(address receiver, uint32 id) public {\n\nPackage memory package =  Package({id: id, receiver:receiver, description:'test', owner:msg.sender});\n\nuserPackages[msg.sender].packages.push(package);\n\n}\n\n}",
  "sourcePath": "/Users/andrejbatarilo/Desktop/course-project-eth/app/contracts/PackagesAll.sol",
  "compiler": {
    "name": "solc",
    "version": "0.8.15+commit.e14f2714.Emscripten.clang"
  },
  "schemaVersion": "3.4.8",
  "updatedAt": "2022-08-01T13:50:57.969Z",
  "networkType": "ethereum",
  "devdoc": {
    "kind": "dev",
    "methods": {},
    "version": 1
  },
  "userdoc": {
    "kind": "user",
    "methods": {},
    "version": 1
  }
}