{
  "contractName": "PackagesAll",
  "abi": [
    {
      "inputs": [],
      "stateMutability": "nonpayable",
      "type": "constructor"
    },
    {
      "inputs": [
        {
          "internalType": "bytes32",
          "name": "userId",
          "type": "bytes32"
        }
      ],
      "name": "getMyPackages",
      "outputs": [
        {
          "internalType": "bytes32[]",
          "name": "",
          "type": "bytes32[]"
        }
      ],
      "stateMutability": "view",
      "type": "function",
      "constant": true
    },
    {
      "inputs": [
        {
          "internalType": "bytes32",
          "name": "packageId",
          "type": "bytes32"
        },
        {
          "internalType": "bytes32",
          "name": "senderId",
          "type": "bytes32"
        },
        {
          "internalType": "bytes32",
          "name": "receiverAddress",
          "type": "bytes32"
        },
        {
          "internalType": "bytes32",
          "name": "description",
          "type": "bytes32"
        }
      ],
      "name": "addPackageFree",
      "outputs": [],
      "stateMutability": "nonpayable",
      "type": "function"
    },
    {
      "inputs": [
        {
          "internalType": "bytes32",
          "name": "userId",
          "type": "bytes32"
        },
        {
          "internalType": "bytes32",
          "name": "packageId",
          "type": "bytes32"
        }
      ],
      "name": "setReceived",
      "outputs": [],
      "stateMutability": "nonpayable",
      "type": "function"
    },
    {
      "inputs": [
        {
          "internalType": "bytes32",
          "name": "userId",
          "type": "bytes32"
        }
      ],
      "name": "getOne",
      "outputs": [
        {
          "internalType": "uint256",
          "name": "",
          "type": "uint256"
        }
      ],
      "stateMutability": "view",
      "type": "function",
      "constant": true
    }
  ],
  "bytecode": "0x608060405234801561001057600080fd5b50610823806100206000396000f3fe608060405234801561001057600080fd5b506004361061004c5760003560e01c80634d70e36a14610051578063aea157761461006d578063eea61de414610089578063fc8d129b146100b9575b600080fd5b61006b600480360381019061006691906104ea565b6100e9565b005b61008760048036038101906100829190610551565b61027c565b005b6100a3600480360381019061009e9190610591565b6102c2565b6040516100b0919061067c565b60405180910390f35b6100d360048036038101906100ce9190610591565b61047e565b6040516100e091906106b7565b60405180910390f35b60006040518060c001604052808681526020018581526020018481526020018381526020013373ffffffffffffffffffffffffffffffffffffffff1681526020016000151581525090508060008086815260200190815260200160002060000160008781526020019081526020016000206000820151816000015560208201518160010155604082015181600201556060820151816003015560808201518160040160006101000a81548173ffffffffffffffffffffffffffffffffffffffff021916908373ffffffffffffffffffffffffffffffffffffffff16021790555060a08201518160040160146101000a81548160ff021916908315150217905550905050600080858152602001908152602001600020600101859080600181540180825580915050600190039060005260206000200160009091909190915055600160008086815260200190815260200160002060020160008282829054906101000a900461ffff1661025b919061070f565b92506101000a81548161ffff021916908361ffff1602179055505050505050565b6001600080848152602001908152602001600020600001600083815260200190815260200160002060040160146101000a81548160ff0219169083151502179055505050565b60606000806000848152602001908152602001600020905060008160020160009054906101000a900461ffff1661ffff1667ffffffffffffffff81111561030c5761030b610747565b5b60405190808252806020026020018201604052801561033a5781602001602082028036833780820191505090505b50905060005b8260020160009054906101000a900461ffff1661ffff1681101561047357600083600001600085600101848154811061037c5761037b610776565b5b906000526020600020015481526020019081526020016000206040518060c0016040529081600082015481526020016001820154815260200160028201548152602001600382015481526020016004820160009054906101000a900473ffffffffffffffffffffffffffffffffffffffff1673ffffffffffffffffffffffffffffffffffffffff1673ffffffffffffffffffffffffffffffffffffffff1681526020016004820160149054906101000a900460ff1615151515815250509050806020015183838151811061045357610452610776565b5b60200260200101818152505050808061046b906107a5565b915050610340565b508092505050919050565b600080600083815260200190815260200160002060020160009054906101000a900461ffff1661ffff169050919050565b600080fd5b6000819050919050565b6104c7816104b4565b81146104d257600080fd5b50565b6000813590506104e4816104be565b92915050565b60008060008060808587031215610504576105036104af565b5b6000610512878288016104d5565b9450506020610523878288016104d5565b9350506040610534878288016104d5565b9250506060610545878288016104d5565b91505092959194509250565b60008060408385031215610568576105676104af565b5b6000610576858286016104d5565b9250506020610587858286016104d5565b9150509250929050565b6000602082840312156105a7576105a66104af565b5b60006105b5848285016104d5565b91505092915050565b600081519050919050565b600082825260208201905092915050565b6000819050602082019050919050565b6105f3816104b4565b82525050565b600061060583836105ea565b60208301905092915050565b6000602082019050919050565b6000610629826105be565b61063381856105c9565b935061063e836105da565b8060005b8381101561066f57815161065688826105f9565b975061066183610611565b925050600181019050610642565b5085935050505092915050565b60006020820190508181036000830152610696818461061e565b905092915050565b6000819050919050565b6106b18161069e565b82525050565b60006020820190506106cc60008301846106a8565b92915050565b600061ffff82169050919050565b7f4e487b7100000000000000000000000000000000000000000000000000000000600052601160045260246000fd5b600061071a826106d2565b9150610725836106d2565b92508261ffff0382111561073c5761073b6106e0565b5b828201905092915050565b7f4e487b7100000000000000000000000000000000000000000000000000000000600052604160045260246000fd5b7f4e487b7100000000000000000000000000000000000000000000000000000000600052603260045260246000fd5b60006107b08261069e565b91507fffffffffffffffffffffffffffffffffffffffffffffffffffffffffffffffff82036107e2576107e16106e0565b5b60018201905091905056fea2646970667358221220fc661b682abed1e39838e0c3aefbaf766d42274dba7079ea3bc2fb3b4488bdb064736f6c634300080f0033",
  "immutableReferences": {},
  "source": "// SPDX-License-Identifier: MIT\npragma solidity >=0.8.0 <0.9.0;\n\ncontract PackagesAll {\n  \n\n  struct Package{\n    bytes32 packageId;\n    bytes32 senderId;\n  \n    bytes32 receiverAddress;\n    bytes32 description;\n    address owner;\n    bool isReceived;\n  }\n\n  struct UserPackages  {\n    mapping (bytes32=> Package) packages;\n      bytes32[] index;\n     uint16 count;\n\n  }\n  mapping (bytes32=>UserPackages) userPackages;\n\n  constructor(){\n\n  }\n\n function getMyPackages(bytes32 userId) public view returns(bytes32[] memory) {\n   \n\n//paketi za jednog korisnika\nUserPackages storage userPackagesTemp = userPackages[userId];\n\nbytes32[] memory array = new bytes32[](userPackagesTemp.count);\n\nfor (uint i = 0; i < userPackagesTemp.count; i++) {\n    Package memory member = userPackagesTemp.packages[userPackagesTemp.index[i]];\n    array[i] = member.senderId;\n}\n\nreturn array;\n}\n\n\n\nfunction addPackageFree( \n  bytes32 packageId,\n  bytes32 senderId, \n  bytes32 receiverAddress, \n  bytes32 description) public {\n\nPackage memory package =  Package({\n  packageId:packageId, \nsenderId: senderId,  receiverAddress: receiverAddress, description:description, owner:msg.sender,  isReceived: false});\n\nuserPackages[senderId].packages[packageId] = package;\nuserPackages[senderId].index.push(packageId);\nuserPackages[senderId].count+=1;\n\n}\n\nfunction setReceived(bytes32 userId,bytes32 packageId) public{\n\n userPackages[userId].packages[packageId].isReceived = true;\n  \n\n}\n\n\nfunction getOne(bytes32 userId) public view returns(uint) {\n\n\n\nreturn userPackages[userId].count;\n}\n\n}",
  "sourcePath": "/Users/andrejbatarilo/Desktop/ethereum-shipping/ethereum-shipping-system-truffle/app/contracts/PackagesAll.sol",
  "compiler": {
    "name": "solc",
    "version": "0.8.15+commit.e14f2714.Emscripten.clang"
  },
  "schemaVersion": "3.4.8",
  "updatedAt": "2022-08-11T10:25:13.908Z",
  "networkType": "ethereum",
  "devdoc": {
    "kind": "dev",
    "methods": {},
    "version": 1
  },
  "userdoc": {
    "kind": "user",
    "methods": {},
    "version": 1
  }
}