{
  "contractName": "PackagesAll",
  "abi": [
    {
      "inputs": [],
      "stateMutability": "nonpayable",
      "type": "constructor"
    },
    {
      "inputs": [
        {
          "internalType": "bytes32",
          "name": "userId",
          "type": "bytes32"
        }
      ],
      "name": "getMyPackages",
      "outputs": [
        {
          "internalType": "bytes32[]",
          "name": "",
          "type": "bytes32[]"
        },
        {
          "internalType": "bytes32[]",
          "name": "",
          "type": "bytes32[]"
        },
        {
          "internalType": "bytes32[]",
          "name": "",
          "type": "bytes32[]"
        },
        {
          "internalType": "bytes32[]",
          "name": "",
          "type": "bytes32[]"
        },
        {
          "internalType": "address[]",
          "name": "",
          "type": "address[]"
        },
        {
          "internalType": "bool[]",
          "name": "",
          "type": "bool[]"
        },
        {
          "internalType": "bytes32[]",
          "name": "",
          "type": "bytes32[]"
        }
      ],
      "stateMutability": "view",
      "type": "function",
      "constant": true
    },
    {
      "inputs": [
        {
          "internalType": "bytes32",
          "name": "packageId",
          "type": "bytes32"
        },
        {
          "internalType": "bytes32",
          "name": "senderId",
          "type": "bytes32"
        },
        {
          "internalType": "bytes32",
          "name": "receiverAddress",
          "type": "bytes32"
        },
        {
          "internalType": "bytes32",
          "name": "description",
          "type": "bytes32"
        },
        {
          "internalType": "bytes32",
          "name": "shipmentDate",
          "type": "bytes32"
        }
      ],
      "name": "addPackageFree",
      "outputs": [],
      "stateMutability": "nonpayable",
      "type": "function"
    },
    {
      "inputs": [
        {
          "internalType": "bytes32",
          "name": "userId",
          "type": "bytes32"
        },
        {
          "internalType": "bytes32",
          "name": "packageId",
          "type": "bytes32"
        },
        {
          "internalType": "bool",
          "name": "value",
          "type": "bool"
        }
      ],
      "name": "setReceived",
      "outputs": [],
      "stateMutability": "nonpayable",
      "type": "function"
    },
    {
      "inputs": [
        {
          "internalType": "bytes32",
          "name": "userId",
          "type": "bytes32"
        },
        {
          "internalType": "bytes32",
          "name": "packageId",
          "type": "bytes32"
        }
      ],
      "name": "getOne",
      "outputs": [
        {
          "internalType": "bytes32",
          "name": "",
          "type": "bytes32"
        },
        {
          "internalType": "bytes32",
          "name": "",
          "type": "bytes32"
        },
        {
          "internalType": "bytes32",
          "name": "",
          "type": "bytes32"
        },
        {
          "internalType": "bytes32",
          "name": "",
          "type": "bytes32"
        },
        {
          "internalType": "address",
          "name": "",
          "type": "address"
        },
        {
          "internalType": "bool",
          "name": "",
          "type": "bool"
        },
        {
          "internalType": "bytes32",
          "name": "",
          "type": "bytes32"
        }
      ],
      "stateMutability": "view",
      "type": "function",
      "constant": true
    }
  ],
  "bytecode": "0x608060405234801561001057600080fd5b50611090806100206000396000f3fe608060405234801561001057600080fd5b506004361061004c5760003560e01c80637363f5e814610051578063a960838614610087578063eea61de4146100a3578063f28d97f9146100d9575b600080fd5b61006b60048036038101906100669190610a1c565b6100f5565b60405161007e9796959493929190610ac7565b60405180910390f35b6100a1600480360381019061009c9190610b36565b61022b565b005b6100bd60048036038101906100b89190610bb1565b6103cf565b6040516100d09796959493929190610e18565b60405180910390f35b6100f360048036038101906100ee9190610ee4565b61091a565b005b6000806000806000806000806000808b815260200190815260200160002060000160008a81526020019081526020016000206040518060e0016040529081600082015481526020016001820154815260200160028201548152602001600382015481526020016004820160009054906101000a900473ffffffffffffffffffffffffffffffffffffffff1673ffffffffffffffffffffffffffffffffffffffff1673ffffffffffffffffffffffffffffffffffffffff1681526020016004820160149054906101000a900460ff16151515158152602001600582015481525050905060008160400151905060008260600151905060008360800151905060008460a00151905060008560c0015190508d8f86868686869c509c509c509c509c509c509c5050505050505092959891949750929550565b60006040518060e001604052808781526020018681526020018581526020018481526020013373ffffffffffffffffffffffffffffffffffffffff1681526020016000151581526020018381525090508060008087815260200190815260200160002060000160008881526020019081526020016000206000820151816000015560208201518160010155604082015181600201556060820151816003015560808201518160040160006101000a81548173ffffffffffffffffffffffffffffffffffffffff021916908373ffffffffffffffffffffffffffffffffffffffff16021790555060a08201518160040160146101000a81548160ff02191690831515021790555060c08201518160050155905050600080868152602001908152602001600020600101869080600181540180825580915050600190039060005260206000200160009091909190915055600160008087815260200190815260200160002060020160008282829054906101000a900461ffff166103ad9190610f74565b92506101000a81548161ffff021916908361ffff160217905550505050505050565b606080606080606080606060008060008a8152602001908152602001600020905060008160020160009054906101000a900461ffff1661ffff1667ffffffffffffffff81111561042257610421610faa565b5b6040519080825280602002602001820160405280156104505781602001602082028036833780820191505090505b50905060008260020160009054906101000a900461ffff1661ffff1667ffffffffffffffff81111561048557610484610faa565b5b6040519080825280602002602001820160405280156104b35781602001602082028036833780820191505090505b50905060008360020160009054906101000a900461ffff1661ffff1667ffffffffffffffff8111156104e8576104e7610faa565b5b6040519080825280602002602001820160405280156105165781602001602082028036833780820191505090505b50905060008460020160009054906101000a900461ffff1661ffff1667ffffffffffffffff81111561054b5761054a610faa565b5b6040519080825280602002602001820160405280156105795781602001602082028036833780820191505090505b50905060008560020160009054906101000a900461ffff1661ffff1667ffffffffffffffff8111156105ae576105ad610faa565b5b6040519080825280602002602001820160405280156105dc5781602001602082028036833780820191505090505b50905060008660020160009054906101000a900461ffff1661ffff1667ffffffffffffffff81111561061157610610610faa565b5b60405190808252806020026020018201604052801561063f5781602001602082028036833780820191505090505b50905060008760020160009054906101000a900461ffff1661ffff1667ffffffffffffffff81111561067457610673610faa565b5b6040519080825280602002602001820160405280156106a25781602001602082028036833780820191505090505b50905060005b8860020160009054906101000a900461ffff1661ffff168110156108f15760008960000160008b60010184815481106106e4576106e3610fd9565b5b906000526020600020015481526020019081526020016000206040518060e0016040529081600082015481526020016001820154815260200160028201548152602001600382015481526020016004820160009054906101000a900473ffffffffffffffffffffffffffffffffffffffff1673ffffffffffffffffffffffffffffffffffffffff1673ffffffffffffffffffffffffffffffffffffffff1681526020016004820160149054906101000a900460ff16151515158152602001600582015481525050905080600001518983815181106107c5576107c4610fd9565b5b60200260200101818152505080602001518883815181106107e9576107e8610fd9565b5b602002602001018181525050806040015187838151811061080d5761080c610fd9565b5b602002602001018181525050806060015186838151811061083157610830610fd9565b5b602002602001018181525050806080015185838151811061085557610854610fd9565b5b602002602001019073ffffffffffffffffffffffffffffffffffffffff16908173ffffffffffffffffffffffffffffffffffffffff16815250508060a001518483815181106108a7576108a6610fd9565b5b6020026020010190151590811515815250508060c001518383815181106108d1576108d0610fd9565b5b6020026020010181815250505080806108e990611012565b9150506106a8565b50868686868686869e509e509e509e509e509e509e505050505050505050919395979092949650565b600080848152602001908152602001600020600001600083815260200190815260200160002060040160009054906101000a900473ffffffffffffffffffffffffffffffffffffffff1673ffffffffffffffffffffffffffffffffffffffff163373ffffffffffffffffffffffffffffffffffffffff161461099b57600080fd5b80600080858152602001908152602001600020600001600084815260200190815260200160002060040160146101000a81548160ff021916908315150217905550505050565b600080fd5b6000819050919050565b6109f9816109e6565b8114610a0457600080fd5b50565b600081359050610a16816109f0565b92915050565b60008060408385031215610a3357610a326109e1565b5b6000610a4185828601610a07565b9250506020610a5285828601610a07565b9150509250929050565b610a65816109e6565b82525050565b600073ffffffffffffffffffffffffffffffffffffffff82169050919050565b6000610a9682610a6b565b9050919050565b610aa681610a8b565b82525050565b60008115159050919050565b610ac181610aac565b82525050565b600060e082019050610adc600083018a610a5c565b610ae96020830189610a5c565b610af66040830188610a5c565b610b036060830187610a5c565b610b106080830186610a9d565b610b1d60a0830185610ab8565b610b2a60c0830184610a5c565b98975050505050505050565b600080600080600060a08688031215610b5257610b516109e1565b5b6000610b6088828901610a07565b9550506020610b7188828901610a07565b9450506040610b8288828901610a07565b9350506060610b9388828901610a07565b9250506080610ba488828901610a07565b9150509295509295909350565b600060208284031215610bc757610bc66109e1565b5b6000610bd584828501610a07565b91505092915050565b600081519050919050565b600082825260208201905092915050565b6000819050602082019050919050565b610c13816109e6565b82525050565b6000610c258383610c0a565b60208301905092915050565b6000602082019050919050565b6000610c4982610bde565b610c538185610be9565b9350610c5e83610bfa565b8060005b83811015610c8f578151610c768882610c19565b9750610c8183610c31565b925050600181019050610c62565b5085935050505092915050565b600081519050919050565b600082825260208201905092915050565b6000819050602082019050919050565b610cd181610a8b565b82525050565b6000610ce38383610cc8565b60208301905092915050565b6000602082019050919050565b6000610d0782610c9c565b610d118185610ca7565b9350610d1c83610cb8565b8060005b83811015610d4d578151610d348882610cd7565b9750610d3f83610cef565b925050600181019050610d20565b5085935050505092915050565b600081519050919050565b600082825260208201905092915050565b6000819050602082019050919050565b610d8f81610aac565b82525050565b6000610da18383610d86565b60208301905092915050565b6000602082019050919050565b6000610dc582610d5a565b610dcf8185610d65565b9350610dda83610d76565b8060005b83811015610e0b578151610df28882610d95565b9750610dfd83610dad565b925050600181019050610dde565b5085935050505092915050565b600060e0820190508181036000830152610e32818a610c3e565b90508181036020830152610e468189610c3e565b90508181036040830152610e5a8188610c3e565b90508181036060830152610e6e8187610c3e565b90508181036080830152610e828186610cfc565b905081810360a0830152610e968185610dba565b905081810360c0830152610eaa8184610c3e565b905098975050505050505050565b610ec181610aac565b8114610ecc57600080fd5b50565b600081359050610ede81610eb8565b92915050565b600080600060608486031215610efd57610efc6109e1565b5b6000610f0b86828701610a07565b9350506020610f1c86828701610a07565b9250506040610f2d86828701610ecf565b9150509250925092565b600061ffff82169050919050565b7f4e487b7100000000000000000000000000000000000000000000000000000000600052601160045260246000fd5b6000610f7f82610f37565b9150610f8a83610f37565b9250828201905061ffff811115610fa457610fa3610f45565b5b92915050565b7f4e487b7100000000000000000000000000000000000000000000000000000000600052604160045260246000fd5b7f4e487b7100000000000000000000000000000000000000000000000000000000600052603260045260246000fd5b6000819050919050565b600061101d82611008565b91507fffffffffffffffffffffffffffffffffffffffffffffffffffffffffffffffff820361104f5761104e610f45565b5b60018201905091905056fea26469706673582212205c5f4f35dc9b576d451c08f5ea7a6f3068708f1dfe0d2b9526d01f3937af8bfe64736f6c63430008100033",
  "immutableReferences": {},
  "source": "// SPDX-License-Identifier: MIT\npragma solidity >=0.8.0 <0.9.0;\n\ncontract PackagesAll {\n  \n\n  struct Package{\n    bytes32 packageId;\n    bytes32 senderId;\n    bytes32 receiverAddress;\n    bytes32 description;\n    address owner;\n    bool isReceived;\n    bytes32 shipmentDate;\n  }\n\n  struct UserPackages  {\n    mapping (bytes32=> Package) packages;\n    bytes32[] index;\n    uint16 count;\n\n  }\n  mapping (bytes32=>UserPackages) userPackages;\n\n  constructor(){\n\n  }\n\n function getMyPackages(bytes32 userId) public view returns(\n bytes32[] memory,\n bytes32[] memory,\n bytes32[] memory,\n bytes32[] memory,\n address[] memory,\n bool[] memory,\n bytes32[] memory\n ) {\n\n//paketi za jednog korisnika\nUserPackages storage userPackagesTemp = userPackages[userId];\n\nbytes32[] memory arrayPackageId = new bytes32[](userPackagesTemp.count);\nbytes32[] memory arraySenderId = new bytes32[](userPackagesTemp.count);\nbytes32[] memory arrayReceiverAddress = new bytes32[](userPackagesTemp.count);\nbytes32[] memory arrayDescription = new bytes32[](userPackagesTemp.count);\naddress[] memory arrayOwner = new address[](userPackagesTemp.count);\nbool[] memory arrayIsReceived = new bool[](userPackagesTemp.count);\nbytes32[] memory arrayDate = new bytes32[](userPackagesTemp.count);\n\n\n\nfor (uint i = 0; i < userPackagesTemp.count; i++) {\n    Package memory member = userPackagesTemp.packages[userPackagesTemp.index[i]];\n    arrayPackageId[i] = member.packageId;\n    arraySenderId[i] = member.senderId;\n    arrayReceiverAddress[i] = member.receiverAddress;\n    arrayDescription[i] = member.description;\n    arrayOwner[i] = member.owner;\n    arrayIsReceived[i] = member.isReceived;\n    arrayDate[i] = member.shipmentDate;\n\n}\n\nreturn (\n  arrayPackageId,\n  arraySenderId,\n  arrayReceiverAddress, \n  arrayDescription, \n  arrayOwner, \n  arrayIsReceived,\n  arrayDate);\n\n\n}\n\n\n\nfunction addPackageFree( \n  bytes32 packageId,\n  bytes32 senderId, \n  bytes32 receiverAddress, \n  bytes32 description,\n  bytes32 shipmentDate) public {\n\n\n\nPackage memory package =  Package({\n  packageId:packageId, \n  senderId: senderId,  \n  receiverAddress: receiverAddress, \n  description:description, \n  owner:msg.sender,  \n  isReceived: false,\n  shipmentDate: shipmentDate\n});\n\nuserPackages[senderId].packages[packageId] = package;\nuserPackages[senderId].index.push(packageId);\nuserPackages[senderId].count+=1;\n\n}\n\nfunction setReceived(bytes32 userId,bytes32 packageId, bool value) public{\n\n\nrequire(msg.sender == userPackages[userId].packages[packageId].owner);\n userPackages[userId].packages[packageId].isReceived = value;\n  \n\n}\n\n\nfunction getOne(bytes32 userId, bytes32 packageId) public view returns(\n  bytes32, \n  bytes32,\n  bytes32,\n  bytes32,\n  address,\n  bool,\n  bytes32\n  ) {\n\n    Package memory package = userPackages[userId].packages[packageId];  \n\n\n    bytes32 receiverAddress = package.receiverAddress;\n    bytes32 description = package.description;\n    address owner = package.owner;\n    bool isReceived = package.isReceived;\n    bytes32 shipmentDate = package.shipmentDate;\n\nreturn (\n  packageId,\n  userId,\n  receiverAddress, \n  description, \n  owner, \n  isReceived,\n  shipmentDate);\n}\n\n\n\n\n}",
  "sourcePath": "/home/dre/Documents/ether-node/ethereum-shipping-system-truffle/app/contracts/PackagesAll.sol",
  "compiler": {
    "name": "solc",
    "version": "0.8.16+commit.07a7930e.Emscripten.clang"
  },
  "schemaVersion": "3.4.8",
  "updatedAt": "2022-08-16T16:28:08.948Z",
  "networkType": "ethereum",
  "devdoc": {
    "kind": "dev",
    "methods": {},
    "version": 1
  },
  "userdoc": {
    "kind": "user",
    "methods": {},
    "version": 1
  }
}